{
  "_format": "hh-sol-artifact-1",
  "contractName": "oldArtSteward",
  "sourceName": "contracts/v1/oldArtSteward.sol",
  "abi": [
    {
      "inputs": [
        {
          "internalType": "address payable",
          "name": "_artist",
          "type": "address"
        },
        {
          "internalType": "address",
          "name": "_artwork",
          "type": "address"
        }
      ],
      "stateMutability": "nonpayable",
      "type": "constructor"
    },
    {
      "anonymous": false,
      "inputs": [
        {
          "indexed": true,
          "internalType": "address",
          "name": "owner",
          "type": "address"
        },
        {
          "indexed": true,
          "internalType": "uint256",
          "name": "price",
          "type": "uint256"
        }
      ],
      "name": "LogBuy",
      "type": "event"
    },
    {
      "anonymous": false,
      "inputs": [
        {
          "indexed": true,
          "internalType": "uint256",
          "name": "collected",
          "type": "uint256"
        }
      ],
      "name": "LogCollection",
      "type": "event"
    },
    {
      "anonymous": false,
      "inputs": [
        {
          "indexed": true,
          "internalType": "address",
          "name": "prevOwner",
          "type": "address"
        }
      ],
      "name": "LogForeclosure",
      "type": "event"
    },
    {
      "anonymous": false,
      "inputs": [
        {
          "indexed": true,
          "internalType": "uint256",
          "name": "newPrice",
          "type": "uint256"
        }
      ],
      "name": "LogPriceChange",
      "type": "event"
    },
    {
      "inputs": [],
      "name": "_collectPatronage",
      "outputs": [],
      "stateMutability": "nonpayable",
      "type": "function"
    },
    {
      "inputs": [],
      "name": "art",
      "outputs": [
        {
          "internalType": "contract IERC721",
          "name": "",
          "type": "address"
        }
      ],
      "stateMutability": "view",
      "type": "function"
    },
    {
      "inputs": [],
      "name": "artist",
      "outputs": [
        {
          "internalType": "address payable",
          "name": "",
          "type": "address"
        }
      ],
      "stateMutability": "view",
      "type": "function"
    },
    {
      "inputs": [],
      "name": "artistFund",
      "outputs": [
        {
          "internalType": "uint256",
          "name": "",
          "type": "uint256"
        }
      ],
      "stateMutability": "view",
      "type": "function"
    },
    {
      "inputs": [
        {
          "internalType": "uint256",
          "name": "_newPrice",
          "type": "uint256"
        }
      ],
      "name": "buy",
      "outputs": [],
      "stateMutability": "payable",
      "type": "function"
    },
    {
      "inputs": [
        {
          "internalType": "uint256",
          "name": "_newPrice",
          "type": "uint256"
        }
      ],
      "name": "changePrice",
      "outputs": [],
      "stateMutability": "nonpayable",
      "type": "function"
    },
    {
      "inputs": [],
      "name": "currentCollected",
      "outputs": [
        {
          "internalType": "uint256",
          "name": "",
          "type": "uint256"
        }
      ],
      "stateMutability": "view",
      "type": "function"
    },
    {
      "inputs": [],
      "name": "deposit",
      "outputs": [
        {
          "internalType": "uint256",
          "name": "",
          "type": "uint256"
        }
      ],
      "stateMutability": "view",
      "type": "function"
    },
    {
      "inputs": [],
      "name": "depositAbleToWithdraw",
      "outputs": [
        {
          "internalType": "uint256",
          "name": "",
          "type": "uint256"
        }
      ],
      "stateMutability": "view",
      "type": "function"
    },
    {
      "inputs": [],
      "name": "depositWei",
      "outputs": [],
      "stateMutability": "payable",
      "type": "function"
    },
    {
      "inputs": [],
      "name": "exit",
      "outputs": [],
      "stateMutability": "nonpayable",
      "type": "function"
    },
    {
      "inputs": [],
      "name": "foreclosed",
      "outputs": [
        {
          "internalType": "bool",
          "name": "",
          "type": "bool"
        }
      ],
      "stateMutability": "view",
      "type": "function"
    },
    {
      "inputs": [],
      "name": "foreclosureTime",
      "outputs": [
        {
          "internalType": "uint256",
          "name": "",
          "type": "uint256"
        }
      ],
      "stateMutability": "view",
      "type": "function"
    },
    {
      "inputs": [
        {
          "internalType": "address",
          "name": "",
          "type": "address"
        }
      ],
      "name": "paid",
      "outputs": [
        {
          "internalType": "uint256",
          "name": "",
          "type": "uint256"
        }
      ],
      "stateMutability": "view",
      "type": "function"
    },
    {
      "inputs": [],
      "name": "patronageOwed",
      "outputs": [
        {
          "internalType": "uint256",
          "name": "patronageDue",
          "type": "uint256"
        }
      ],
      "stateMutability": "view",
      "type": "function"
    },
    {
      "inputs": [],
      "name": "patronageOwedWithTimestamp",
      "outputs": [
        {
          "internalType": "uint256",
          "name": "patronageDue",
          "type": "uint256"
        },
        {
          "internalType": "uint256",
          "name": "timestamp",
          "type": "uint256"
        }
      ],
      "stateMutability": "view",
      "type": "function"
    },
    {
      "inputs": [
        {
          "internalType": "address",
          "name": "",
          "type": "address"
        }
      ],
      "name": "patrons",
      "outputs": [
        {
          "internalType": "bool",
          "name": "",
          "type": "bool"
        }
      ],
      "stateMutability": "view",
      "type": "function"
    },
    {
      "inputs": [],
      "name": "price",
      "outputs": [
        {
          "internalType": "uint256",
          "name": "",
          "type": "uint256"
        }
      ],
      "stateMutability": "view",
      "type": "function"
    },
    {
      "inputs": [],
      "name": "state",
      "outputs": [
        {
          "internalType": "enum oldArtSteward.StewardState",
          "name": "",
          "type": "uint8"
        }
      ],
      "stateMutability": "view",
      "type": "function"
    },
    {
      "inputs": [],
      "name": "timeAcquired",
      "outputs": [
        {
          "internalType": "uint256",
          "name": "",
          "type": "uint256"
        }
      ],
      "stateMutability": "view",
      "type": "function"
    },
    {
      "inputs": [
        {
          "internalType": "address",
          "name": "",
          "type": "address"
        }
      ],
      "name": "timeHeld",
      "outputs": [
        {
          "internalType": "uint256",
          "name": "",
          "type": "uint256"
        }
      ],
      "stateMutability": "view",
      "type": "function"
    },
    {
      "inputs": [],
      "name": "timeLastCollected",
      "outputs": [
        {
          "internalType": "uint256",
          "name": "",
          "type": "uint256"
        }
      ],
      "stateMutability": "view",
      "type": "function"
    },
    {
      "inputs": [],
      "name": "totalCollected",
      "outputs": [
        {
          "internalType": "uint256",
          "name": "",
          "type": "uint256"
        }
      ],
      "stateMutability": "view",
      "type": "function"
    },
    {
      "inputs": [],
      "name": "withdrawArtistFunds",
      "outputs": [],
      "stateMutability": "nonpayable",
      "type": "function"
    },
    {
      "inputs": [
        {
          "internalType": "uint256",
          "name": "_wei",
          "type": "uint256"
        }
      ],
      "name": "withdrawDeposit",
      "outputs": [
        {
          "internalType": "uint256",
          "name": "",
          "type": "uint256"
        }
      ],
      "stateMutability": "nonpayable",
      "type": "function"
    }
  ],
  "bytecode": "0x6080604052640ba43b7400600c5564e8d4a51000600d5534801561002257600080fd5b50604051611d79380380611d798339818101604052604081101561004557600080fd5b81019080805190602001909291908051906020019092919050505080600160006101000a81548173ffffffffffffffffffffffffffffffffffffffff021916908373ffffffffffffffffffffffffffffffffffffffff160217905550600160009054906101000a900473ffffffffffffffffffffffffffffffffffffffff1673ffffffffffffffffffffffffffffffffffffffff1663ba0bba406040518163ffffffff1660e01b8152600401600060405180830381600087803b15801561010b57600080fd5b505af115801561011f573d6000803e3d6000fd5b5050505081600660006101000a81548173ffffffffffffffffffffffffffffffffffffffff021916908373ffffffffffffffffffffffffffffffffffffffff1602179055506000600e60006101000a81548160ff0219169083600181111561018357fe5b02179055505050611be0806101996000396000f3fe6080604052600436106101665760003560e01c8063929417db116100d1578063a97d70b11161008a578063d96a094a11610064578063d96a094a146105cd578063e29eb836146105fb578063e9fad8ee14610626578063f07af5f71461063d57610166565b8063a97d70b114610541578063c19d93fb1461056c578063d0e30db0146105a257610166565b8063929417db146103bb5780639443c2e3146103e65780639fc7a65b14610411578063a035b1fe14610476578063a2b40d19146104a1578063a340cf79146104dc57610166565b80633989e231116101235780633989e231146102b057806343bc1612146102c75780634bd8aeac1461030857806355c3bf1014610333578063879d5aad1461035e5780638bb66d8a1461038957610166565b80630ee591ba1461016b57806315488b88146101825780632ef463201461018c578063301bd28e146101f3578063325678031461023457806333289a4614610261575b600080fd5b34801561017757600080fd5b50610180610668565b005b61018a6107a0565b005b34801561019857600080fd5b506101db600480360360208110156101af57600080fd5b81019080803573ffffffffffffffffffffffffffffffffffffffff169060200190929190505050610861565b60405180821515815260200191505060405180910390f35b3480156101ff57600080fd5b50610208610881565b604051808273ffffffffffffffffffffffffffffffffffffffff16815260200191505060405180910390f35b34801561024057600080fd5b506102496108a7565b60405180821515815260200191505060405180910390f35b34801561026d57600080fd5b5061029a6004803603602081101561028457600080fd5b81019080803590602001909291905050506108d0565b6040518082815260200191505060405180910390f35b3480156102bc57600080fd5b506102c5610a37565b005b3480156102d357600080fd5b506102dc610b85565b604051808273ffffffffffffffffffffffffffffffffffffffff16815260200191505060405180910390f35b34801561031457600080fd5b5061031d610bab565b6040518082815260200191505060405180910390f35b34801561033f57600080fd5b50610348610bb1565b6040518082815260200191505060405180910390f35b34801561036a57600080fd5b50610373610bb7565b6040518082815260200191505060405180910390f35b34801561039557600080fd5b5061039e610c1f565b604051808381526020018281526020019250505060405180910390f35b3480156103c757600080fd5b506103d0610c33565b6040518082815260200191505060405180910390f35b3480156103f257600080fd5b506103fb610ca1565b6040518082815260200191505060405180910390f35b34801561041d57600080fd5b506104606004803603602081101561043457600080fd5b81019080803573ffffffffffffffffffffffffffffffffffffffff169060200190929190505050610cdd565b6040518082815260200191505060405180910390f35b34801561048257600080fd5b5061048b610cf5565b6040518082815260200191505060405180910390f35b3480156104ad57600080fd5b506104da600480360360208110156104c457600080fd5b8101908080359060200190929190505050610cfb565b005b3480156104e857600080fd5b5061052b600480360360208110156104ff57600080fd5b81019080803573ffffffffffffffffffffffffffffffffffffffff169060200190929190505050610f9e565b6040518082815260200191505060405180910390f35b34801561054d57600080fd5b50610556610fb6565b6040518082815260200191505060405180910390f35b34801561057857600080fd5b50610581610fbc565b6040518082600181111561059157fe5b815260200191505060405180910390f35b3480156105ae57600080fd5b506105b7610fcf565b6040518082815260200191505060405180910390f35b6105f9600480360360208110156105e357600080fd5b8101908080359060200190929190505050610fd5565b005b34801561060757600080fd5b506106106112ef565b6040518082815260200191505060405180910390f35b34801561063257600080fd5b5061063b6112f5565b005b34801561064957600080fd5b50610652611459565b6040518082815260200191505060405180910390f35b600660009054906101000a900473ffffffffffffffffffffffffffffffffffffffff1673ffffffffffffffffffffffffffffffffffffffff163373ffffffffffffffffffffffffffffffffffffffff161461072b576040517f08c379a000000000000000000000000000000000000000000000000000000000815260040180806020018281038252600a8152602001807f4e6f74206172746973740000000000000000000000000000000000000000000081525060200191505060405180910390fd5b600660009054906101000a900473ffffffffffffffffffffffffffffffffffffffff1673ffffffffffffffffffffffffffffffffffffffff166108fc6007549081150290604051600060405180830381858888f19350505050158015610795573d6000803e3d6000fd5b506000600781905550565b6107a8610a37565b600060018111156107b557fe5b600e60009054906101000a900460ff1660018111156107d057fe5b1415610844576040517f08c379a000000000000000000000000000000000000000000000000000000000815260040180806020018281038252600a8152602001807f466f7265636c6f7365640000000000000000000000000000000000000000000081525060200191505060405180910390fd5b6108593460055461145f90919063ffffffff16565b600581905550565b60086020528060005260406000206000915054906101000a900460ff1681565b600160009054906101000a900473ffffffffffffffffffffffffffffffffffffffff1681565b6000806108b2610c33565b905060055481106108c75760019150506108cd565b60009150505b90565b6000600160009054906101000a900473ffffffffffffffffffffffffffffffffffffffff1673ffffffffffffffffffffffffffffffffffffffff16636352211e602a6040518263ffffffff1660e01b81526004018082815260200191505060206040518083038186803b15801561094657600080fd5b505afa15801561095a573d6000803e3d6000fd5b505050506040513d602081101561097057600080fd5b810190808051906020019092919050505073ffffffffffffffffffffffffffffffffffffffff163373ffffffffffffffffffffffffffffffffffffffff1614610a21576040517f08c379a000000000000000000000000000000000000000000000000000000000815260040180806020018281038252600a8152602001807f4e6f7420706174726f6e0000000000000000000000000000000000000000000081525060200191505060405180910390fd5b610a29610a37565b610a32826114e7565b919050565b600180811115610a4357fe5b600e60009054906101000a900460ff166001811115610a5e57fe5b1415610b83576000610a6e610c33565b90506005548110610ae057610ac8610ab782610aa9600554610a9b600454426115d890919063ffffffff16565b61162290919063ffffffff16565b6116a890919063ffffffff16565b60045461145f90919063ffffffff16565b6004819055506005549050610adb6116f2565b610b03565b42600481905550610afc8160035461145f90919063ffffffff16565b6003819055505b610b18816005546115d890919063ffffffff16565b600581905550610b338160025461145f90919063ffffffff16565b600281905550610b4e8160075461145f90919063ffffffff16565b600781905550807f54acb82a9e70d7c289b149758d23167c915428ae854a7aa4abe5bf2f4ef29f3660405160405180910390a2505b565b600660009054906101000a900473ffffffffffffffffffffffffffffffffffffffff1681565b60075481565b600b5481565b600080610bfb6301e13380610bed600d54610bdf600c5460005461162290919063ffffffff16565b6116a890919063ffffffff16565b6116a890919063ffffffff16565b9050610c1781610c09610ca1565b6116a890919063ffffffff16565b420191505090565b600080610c2a610c33565b42915091509091565b6000610c9c6301e13380610c8e600d54610c80600c54610c72610c61600454426115d890919063ffffffff16565b60005461162290919063ffffffff16565b61162290919063ffffffff16565b6116a890919063ffffffff16565b6116a890919063ffffffff16565b905090565b600080610cac610c33565b90506005548110610cc1576000915050610cda565b610cd6816005546115d890919063ffffffff16565b9150505b90565b60096020528060005260406000206000915090505481565b60005481565b600160009054906101000a900473ffffffffffffffffffffffffffffffffffffffff1673ffffffffffffffffffffffffffffffffffffffff16636352211e602a6040518263ffffffff1660e01b81526004018082815260200191505060206040518083038186803b158015610d6f57600080fd5b505afa158015610d83573d6000803e3d6000fd5b505050506040513d6020811015610d9957600080fd5b810190808051906020019092919050505073ffffffffffffffffffffffffffffffffffffffff163373ffffffffffffffffffffffffffffffffffffffff1614610e4a576040517f08c379a000000000000000000000000000000000000000000000000000000000815260040180806020018281038252600a8152602001807f4e6f7420706174726f6e0000000000000000000000000000000000000000000081525060200191505060405180910390fd5b610e52610a37565b60006001811115610e5f57fe5b600e60009054906101000a900460ff166001811115610e7a57fe5b1415610eee576040517f08c379a000000000000000000000000000000000000000000000000000000000815260040180806020018281038252600a8152602001807f466f7265636c6f7365640000000000000000000000000000000000000000000081525060200191505060405180910390fd5b6000811415610f65576040517f08c379a000000000000000000000000000000000000000000000000000000000815260040180806020018281038252600f8152602001807f496e636f7272656374205072696365000000000000000000000000000000000081525060200191505060405180910390fd5b806000819055506000547f854d6511a28585103049c7770618450f7c9aeb580c69db2913d63869663f475160405160405180910390a250565b600a6020528060005260406000206000915090505481565b60035481565b600e60009054906101000a900460ff1681565b60055481565b610fdd610a37565b60008111611053576040517f08c379a000000000000000000000000000000000000000000000000000000000815260040180806020018281038252600d8152602001807f5072696365206973207a65726f0000000000000000000000000000000000000081525060200191505060405180910390fd5b60005434116110ca576040517f08c379a000000000000000000000000000000000000000000000000000000000815260040180806020018281038252600a8152602001807f4e6f7420656e6f7567680000000000000000000000000000000000000000000081525060200191505060405180910390fd5b6000600160009054906101000a900473ffffffffffffffffffffffffffffffffffffffff1673ffffffffffffffffffffffffffffffffffffffff16636352211e602a6040518263ffffffff1660e01b81526004018082815260200191505060206040518083038186803b15801561114057600080fd5b505afa158015611154573d6000803e3d6000fd5b505050506040513d602081101561116a57600080fd5b8101908080519060200190929190505050905060018081111561118957fe5b600e60009054906101000a900460ff1660018111156111a457fe5b141561122657600080549050600060055411156111d3576111d06005548261145f90919063ffffffff16565b90505b60008290508073ffffffffffffffffffffffffffffffffffffffff166108fc839081150290604051600060405180830381858888f1935050505015801561121e573d6000803e3d6000fd5b505050611281565b6000600181111561123357fe5b600e60009054906101000a900460ff16600181111561124e57fe5b1415611280576001600e60006101000a81548160ff0219169083600181111561127357fe5b0217905550426004819055505b5b611296600054346115d890919063ffffffff16565b6005819055506112a7813384611823565b813373ffffffffffffffffffffffffffffffffffffffff167f4f79409f494e81c38036d80aa8a6507c2cb08d90bfb2fead5519447646b3497e60405160405180910390a35050565b60025481565b600160009054906101000a900473ffffffffffffffffffffffffffffffffffffffff1673ffffffffffffffffffffffffffffffffffffffff16636352211e602a6040518263ffffffff1660e01b81526004018082815260200191505060206040518083038186803b15801561136957600080fd5b505afa15801561137d573d6000803e3d6000fd5b505050506040513d602081101561139357600080fd5b810190808051906020019092919050505073ffffffffffffffffffffffffffffffffffffffff163373ffffffffffffffffffffffffffffffffffffffff1614611444576040517f08c379a000000000000000000000000000000000000000000000000000000000815260040180806020018281038252600a8152602001807f4e6f7420706174726f6e0000000000000000000000000000000000000000000081525060200191505060405180910390fd5b61144c610a37565b6114576005546114e7565b565b60045481565b6000808284019050838110156114dd576040517f08c379a000000000000000000000000000000000000000000000000000000000815260040180806020018281038252601b8152602001807f536166654d6174683a206164646974696f6e206f766572666c6f77000000000081525060200191505060405180910390fd5b8091505092915050565b80600554101561155f576040517f08c379a00000000000000000000000000000000000000000000000000000000081526004018080602001828103825260148152602001807f5769746864726177696e6720746f6f206d75636800000000000000000000000081525060200191505060405180910390fd5b611574816005546115d890919063ffffffff16565b6005819055503373ffffffffffffffffffffffffffffffffffffffff166108fc829081150290604051600060405180830381858888f193505050501580156115c0573d6000803e3d6000fd5b50600060055414156115d5576115d46116f2565b5b50565b600061161a83836040518060400160405280601e81526020017f536166654d6174683a207375627472616374696f6e206f766572666c6f770000815250611a03565b905092915050565b60008083141561163557600090506116a2565b600082840290508284828161164657fe5b041461169d576040517f08c379a0000000000000000000000000000000000000000000000000000000008152600401808060200182810382526021815260200180611b8a6021913960400191505060405180910390fd5b809150505b92915050565b60006116ea83836040518060400160405280601a81526020017f536166654d6174683a206469766973696f6e206279207a65726f000000000000815250611ac3565b905092915050565b6000600160009054906101000a900473ffffffffffffffffffffffffffffffffffffffff1673ffffffffffffffffffffffffffffffffffffffff16636352211e602a6040518263ffffffff1660e01b81526004018082815260200191505060206040518083038186803b15801561176857600080fd5b505afa15801561177c573d6000803e3d6000fd5b505050506040513d602081101561179257600080fd5b810190808051906020019092919050505090506117b181306000611823565b6000600e60006101000a81548160ff021916908360018111156117d057fe5b021790555060006003819055508073ffffffffffffffffffffffffffffffffffffffff167f6d6bbefef62d4cb6d0e3a4dd306a71d3632319b1e03659513df86b247dd657fe60405160405180910390a250565b61188b61183d600b546004546115d890919063ffffffff16565b600960008673ffffffffffffffffffffffffffffffffffffffff1673ffffffffffffffffffffffffffffffffffffffff1681526020019081526020016000205461145f90919063ffffffff16565b600960008573ffffffffffffffffffffffffffffffffffffffff1673ffffffffffffffffffffffffffffffffffffffff16815260200190815260200160002081905550600160009054906101000a900473ffffffffffffffffffffffffffffffffffffffff1673ffffffffffffffffffffffffffffffffffffffff166323b872dd8484602a6040518463ffffffff1660e01b8152600401808473ffffffffffffffffffffffffffffffffffffffff1681526020018373ffffffffffffffffffffffffffffffffffffffff1681526020018281526020019350505050600060405180830381600087803b15801561198057600080fd5b505af1158015611994573d6000803e3d6000fd5b505050508060008190555042600b819055506001600860008473ffffffffffffffffffffffffffffffffffffffff1673ffffffffffffffffffffffffffffffffffffffff16815260200190815260200160002060006101000a81548160ff021916908315150217905550505050565b6000838311158290611ab0576040517f08c379a00000000000000000000000000000000000000000000000000000000081526004018080602001828103825283818151815260200191508051906020019080838360005b83811015611a75578082015181840152602081019050611a5a565b50505050905090810190601f168015611aa25780820380516001836020036101000a031916815260200191505b509250505060405180910390fd5b5060008385039050809150509392505050565b60008083118290611b6f576040517f08c379a00000000000000000000000000000000000000000000000000000000081526004018080602001828103825283818151815260200191508051906020019080838360005b83811015611b34578082015181840152602081019050611b19565b50505050905090810190601f168015611b615780820380516001836020036101000a031916815260200191505b509250505060405180910390fd5b506000838581611b7b57fe5b04905080915050939250505056fe536166654d6174683a206d756c7469706c69636174696f6e206f766572666c6f77a2646970667358221220029270bdb8c04814401af7571c561e4e32e39a6b12a000370beb5404f6931a8964736f6c63430007030033",
  "linkReferences": {},
  "deployedLinkReferences": {}
}