{
  "fileName": "ArtSteward.sol",
  "contractName": "ArtSteward",
  "source": "pragma solidity ^0.6.6;\nimport \"./interfaces/IERC721.sol\";\nimport \"./utils/SafeMath.sol\";\n\n// What changed for V2 (June 2020 update):\n// - Medium Severity Fixes:\n// - Added a check on buy to prevent front-running. Needs to give currentPrice when buying.\n// - Removed ability for someone to block buying through revert on ETH send. Funds get sent to a pull location.\n// - Added patron check on depositWei. Since anyone can send, it can be front-run, stealing a deposit by buying before deposit clears.\n// - Other Minor Changes:\n// - Added past foreclosureTime() if it happened in the past.\n// - Moved patron modifier checks to AFTER patronage. Thus, not necessary to have steward state anymore.\n// - Removed steward state. Only check on price now. If price = zero = foreclosed. \n// - Removed paid mapping. Wasn't used.\n// - Moved constructor to a function in case this is used with upgradeable contracts.\n// - Changed currentCollected into a view function rather than tracking variable. This fixed a bug where CC would keep growing in between ownerships.\n// - Kept the numerator/denominator code (for reference), but removed to save gas costs for 100% patronage rate.\n\n// - Changes for UI:\n// - Need to have additional current price when buying.\n// - foreclosureTime() will now backdate if past foreclose time.\n\ncontract ArtSteward {\n    \n    /*\n    This smart contract collects patronage from current owner through a Harberger tax model and \n    takes stewardship of the artwork if the patron can't pay anymore.\n\n    Harberger Tax (COST): \n    - Artwork is always on sale.\n    - You have to have a price set.\n    - Tax (Patronage) is paid to maintain ownership.\n    - Steward maints control over ERC721.\n    */\n    using SafeMath for uint256;\n    \n    uint256 public price; //in wei\n    IERC721 public art; // ERC721 NFT.\n    \n    uint256 public totalCollected; // all patronage ever collected\n\n    /* In the event that a foreclosure happens AFTER it should have been foreclosed already,\n    this variable is backdated to when it should've occurred. Thus: timeHeld is accurate to actual deposit. */\n    uint256 public timeLastCollected; // timestamp when last collection occurred\n    uint256 public deposit; // funds for paying patronage\n    address payable public artist; // beneficiary\n    uint256 public artistFund; // what artist has earned and can withdraw\n\n    /*\n    If for whatever reason the transfer fails when being sold,\n    it's added to a pullFunds such that previous owner can withdraw it.\n    */\n    mapping (address => uint256) public pullFunds; // storage area in case a sale can't send the funds towards previous owner.\n    mapping (address => bool) public patrons; // list of whom have owned it\n    mapping (address => uint256) public timeHeld; // time held by particular patron\n\n    uint256 public timeAcquired; // when it is newly bought/sold\n    \n    // percentage patronage rate. eg 5% or 100% \n    // granular to an additionial 10 zeroes.\n    uint256 patronageNumerator; \n    uint256 patronageDenominator;\n\n    bool init;\n\n    constructor(address payable _artist, address _artwork) public {\n    //function setup(address payable _artist, address _artwork) public {\n        // this is kept here in case you want to use this in an upgradeable contract\n        require(init == false, \"Steward already initialized.\");\n        // 100% patronage: only here for reference\n        patronageNumerator = 1000000000000;\n        patronageDenominator = 1000000000000;\n        art = IERC721(_artwork);\n        art.setup();\n        artist = _artist;\n\n        //sets up initial parameters for foreclosure\n        _forecloseIfNecessary();\n\n        init = true;\n    }\n\n    event LogBuy(address indexed owner, uint256 indexed price);\n    event LogPriceChange(uint256 indexed newPrice);\n    event LogForeclosure(address indexed prevOwner);\n    event LogCollection(uint256 indexed collected);\n    \n    modifier onlyPatron() {\n        require(msg.sender == art.ownerOf(42), \"Not patron\");\n        _;\n    }\n\n    modifier collectPatronage() {\n       _collectPatronage(); \n       _;\n    }\n\n    /* public view functions */\n    /* used internally in external actions */\n\n    // how much is owed from last collection to now.\n    function patronageOwed() public view returns (uint256 patronageDue) {\n        //return price.mul(now.sub(timeLastCollected)).mul(patronageNumerator).div(patronageDenominator).div(365 days);\n        return price.mul(now.sub(timeLastCollected)).div(365 days);\n    }\n\n    /* not used internally in external actions */\n    function patronageOwedRange(uint256 _time) public view returns (uint256 patronageDue) {\n        //return price.mul(_time).mul(patronageNumerator).div(patronageDenominator).div(365 days);\n        return price.mul(_time).div(365 days);\n    }\n\n    function currentCollected() public view returns (uint256 patronageDue) {\n        if(timeLastCollected > timeAcquired) {\n            return patronageOwedRange(timeLastCollected.sub(timeAcquired));\n        } else { return 0; }\n    }\n\n    function patronageOwedWithTimestamp() public view returns (uint256 patronageDue, uint256 timestamp) {\n        return (patronageOwed(), now);\n    }\n\n    function foreclosed() public view returns (bool) {\n        // returns whether it is in foreclosed state or not\n        // depending on whether deposit covers patronage due\n        // useful helper function when price should be zero, but contract doesn't reflect it yet.\n        uint256 collection = patronageOwed();\n        if(collection >= deposit) {\n            return true;\n        } else {\n            return false;\n        }\n    }\n\n    // same function as above, basically\n    function depositAbleToWithdraw() public view returns (uint256) {\n        uint256 collection = patronageOwed();\n        if(collection >= deposit) {\n            return 0;\n        } else {\n            return deposit.sub(collection);\n        }\n    }\n\n    /*\n    now + deposit/patronage per second \n    now + depositAbleToWithdraw/(price*nume/denom/365).\n    */\n    function foreclosureTime() public view returns (uint256) {\n        // patronage per second\n        uint256 pps = price.mul(patronageNumerator).div(patronageDenominator).div(365 days);\n        uint256 daw = depositAbleToWithdraw();\n        if(daw > 0) {\n            return now + depositAbleToWithdraw().div(pps);\n        } else if (pps > 0) {\n            // it is still active, but in foreclosure state\n            // it is NOW or was in the past\n            uint256 collection = patronageOwed();\n            return timeLastCollected.add(((now.sub(timeLastCollected)).mul(deposit).div(collection)));\n        } else {\n            // not active and actively foreclosed (price is zero)\n            return timeLastCollected; // it has been foreclosed or in foreclosure.\n        }\n    }\n\n    /* actions */\n    // determine patronage to pay\n    function _collectPatronage() public {\n\n        if (price != 0) { // price > 0 == active owned state\n            uint256 collection = patronageOwed();\n            \n            if (collection >= deposit) { // foreclosure happened in the past\n\n                // up to when was it actually paid for?\n                // TLC + (time_elapsed)*deposit/collection\n                timeLastCollected = timeLastCollected.add((now.sub(timeLastCollected)).mul(deposit).div(collection));\n                collection = deposit; // take what's left.\n            } else { \n                timeLastCollected = now; \n            } // normal collection\n\n            deposit = deposit.sub(collection);\n            totalCollected = totalCollected.add(collection);\n            artistFund = artistFund.add(collection);\n            emit LogCollection(collection);\n\n            _forecloseIfNecessary();\n        }\n\n    }\n\n    function buy(uint256 _newPrice, uint256 _currentPrice) public payable collectPatronage {\n        /* \n            this is protection against a front-run attack.\n            the person will only buy the artwork if it is what they agreed to.\n            thus: someone can't buy it from under them and change the price, eating into their deposit.\n        */\n        require(price == _currentPrice, \"Current Price incorrect\");\n        require(_newPrice > 0, \"Price is zero\");\n        require(msg.value > price, \"Not enough\"); // >, coz need to have at least something for deposit\n\n        address currentOwner = art.ownerOf(42);\n\n        uint256 totalToPayBack = price.add(deposit);\n        if(totalToPayBack > 0) { // this won't execute if steward owns it. price = 0. deposit = 0.\n            // pay previous owner their price + deposit back.\n            address payable payableCurrentOwner = address(uint160(currentOwner));\n            bool transferSuccess = payableCurrentOwner.send(totalToPayBack);\n\n            // if the send fails, keep the funds separate for the owner\n            if(!transferSuccess) { pullFunds[currentOwner] = pullFunds[currentOwner].add(totalToPayBack); }\n        }\n\n        // new purchase\n        timeLastCollected = now;\n        \n        deposit = msg.value.sub(price);\n        transferArtworkTo(currentOwner, msg.sender, _newPrice);\n        emit LogBuy(msg.sender, _newPrice);\n    }\n\n    /* Only Patron Actions */\n    function depositWei() public payable collectPatronage onlyPatron {\n        deposit = deposit.add(msg.value);\n    }\n\n    function changePrice(uint256 _newPrice) public collectPatronage onlyPatron {\n        require(_newPrice > 0, 'Price is zero'); // negative price?\n        price = _newPrice;\n        emit LogPriceChange(price);\n    }\n    \n    function withdrawDeposit(uint256 _wei) public collectPatronage onlyPatron {\n        _withdrawDeposit(_wei);\n    }\n\n    function exit() public collectPatronage onlyPatron {\n        _withdrawDeposit(deposit);\n    }\n\n    /* Actions that don't affect state of the artwork */\n    /* Artist Actions */\n    function withdrawArtistFunds() public {\n        require(msg.sender == artist, \"Not artist\");\n        uint256 toSend = artistFund;\n        artistFund = 0;\n        artist.transfer(toSend);\n    }\n\n    /* Withdrawing Stuck Deposits */\n    /* To reduce complexity, pull funds are entirely separate from current deposit */\n    function withdrawPullFunds() public {\n        require(pullFunds[msg.sender] > 0, \"No pull funds available.\");\n        uint256 toSend = pullFunds[msg.sender];\n        pullFunds[msg.sender] = 0;\n        msg.sender.transfer(toSend);\n    }\n\n    /* internal */\n    function _withdrawDeposit(uint256 _wei) internal {\n        // note: can withdraw whole deposit, which puts it in immediate to be foreclosed state.\n        require(deposit >= _wei, 'Withdrawing too much');\n\n        deposit = deposit.sub(_wei);\n        msg.sender.transfer(_wei); // msg.sender == patron\n\n        _forecloseIfNecessary();\n    }\n\n    function _forecloseIfNecessary() internal {\n        if(deposit == 0) {\n            // become steward of artwork (aka foreclose)\n            address currentOwner = art.ownerOf(42);\n            transferArtworkTo(currentOwner, address(this), 0);\n            emit LogForeclosure(currentOwner);\n        }\n    }\n\n    function transferArtworkTo(address _currentOwner, address _newOwner, uint256 _newPrice) internal {\n        // note: it would also tabulate time held in stewardship by smart contract\n        timeHeld[_currentOwner] = timeHeld[_currentOwner].add((timeLastCollected.sub(timeAcquired)));\n        \n        art.transferFrom(_currentOwner, _newOwner, 42);\n\n        price = _newPrice;\n        timeAcquired = now;\n        patrons[_newOwner] = true;\n    }\n}",
  "sourcePath": "contracts/v2/ArtSteward.sol",
  "abi": [
    {
      "inputs": [
        {
          "internalType": "address payable",
          "name": "_artist",
          "type": "address"
        },
        {
          "internalType": "address",
          "name": "_artwork",
          "type": "address"
        }
      ],
      "stateMutability": "nonpayable",
      "type": "constructor"
    },
    {
      "anonymous": false,
      "inputs": [
        {
          "indexed": true,
          "internalType": "address",
          "name": "owner",
          "type": "address"
        },
        {
          "indexed": true,
          "internalType": "uint256",
          "name": "price",
          "type": "uint256"
        }
      ],
      "name": "LogBuy",
      "type": "event"
    },
    {
      "anonymous": false,
      "inputs": [
        {
          "indexed": true,
          "internalType": "uint256",
          "name": "collected",
          "type": "uint256"
        }
      ],
      "name": "LogCollection",
      "type": "event"
    },
    {
      "anonymous": false,
      "inputs": [
        {
          "indexed": true,
          "internalType": "address",
          "name": "prevOwner",
          "type": "address"
        }
      ],
      "name": "LogForeclosure",
      "type": "event"
    },
    {
      "anonymous": false,
      "inputs": [
        {
          "indexed": true,
          "internalType": "uint256",
          "name": "newPrice",
          "type": "uint256"
        }
      ],
      "name": "LogPriceChange",
      "type": "event"
    },
    {
      "inputs": [],
      "name": "_collectPatronage",
      "outputs": [],
      "stateMutability": "nonpayable",
      "type": "function"
    },
    {
      "inputs": [],
      "name": "art",
      "outputs": [
        {
          "internalType": "contract IERC721",
          "name": "",
          "type": "address"
        }
      ],
      "stateMutability": "view",
      "type": "function"
    },
    {
      "inputs": [],
      "name": "artist",
      "outputs": [
        {
          "internalType": "address payable",
          "name": "",
          "type": "address"
        }
      ],
      "stateMutability": "view",
      "type": "function"
    },
    {
      "inputs": [],
      "name": "artistFund",
      "outputs": [
        {
          "internalType": "uint256",
          "name": "",
          "type": "uint256"
        }
      ],
      "stateMutability": "view",
      "type": "function"
    },
    {
      "inputs": [
        {
          "internalType": "uint256",
          "name": "_newPrice",
          "type": "uint256"
        },
        {
          "internalType": "uint256",
          "name": "_currentPrice",
          "type": "uint256"
        }
      ],
      "name": "buy",
      "outputs": [],
      "stateMutability": "payable",
      "type": "function"
    },
    {
      "inputs": [
        {
          "internalType": "uint256",
          "name": "_newPrice",
          "type": "uint256"
        }
      ],
      "name": "changePrice",
      "outputs": [],
      "stateMutability": "nonpayable",
      "type": "function"
    },
    {
      "inputs": [],
      "name": "currentCollected",
      "outputs": [
        {
          "internalType": "uint256",
          "name": "patronageDue",
          "type": "uint256"
        }
      ],
      "stateMutability": "view",
      "type": "function"
    },
    {
      "inputs": [],
      "name": "deposit",
      "outputs": [
        {
          "internalType": "uint256",
          "name": "",
          "type": "uint256"
        }
      ],
      "stateMutability": "view",
      "type": "function"
    },
    {
      "inputs": [],
      "name": "depositAbleToWithdraw",
      "outputs": [
        {
          "internalType": "uint256",
          "name": "",
          "type": "uint256"
        }
      ],
      "stateMutability": "view",
      "type": "function"
    },
    {
      "inputs": [],
      "name": "depositWei",
      "outputs": [],
      "stateMutability": "payable",
      "type": "function"
    },
    {
      "inputs": [],
      "name": "exit",
      "outputs": [],
      "stateMutability": "nonpayable",
      "type": "function"
    },
    {
      "inputs": [],
      "name": "foreclosed",
      "outputs": [
        {
          "internalType": "bool",
          "name": "",
          "type": "bool"
        }
      ],
      "stateMutability": "view",
      "type": "function"
    },
    {
      "inputs": [],
      "name": "foreclosureTime",
      "outputs": [
        {
          "internalType": "uint256",
          "name": "",
          "type": "uint256"
        }
      ],
      "stateMutability": "view",
      "type": "function"
    },
    {
      "inputs": [],
      "name": "patronageOwed",
      "outputs": [
        {
          "internalType": "uint256",
          "name": "patronageDue",
          "type": "uint256"
        }
      ],
      "stateMutability": "view",
      "type": "function"
    },
    {
      "inputs": [
        {
          "internalType": "uint256",
          "name": "_time",
          "type": "uint256"
        }
      ],
      "name": "patronageOwedRange",
      "outputs": [
        {
          "internalType": "uint256",
          "name": "patronageDue",
          "type": "uint256"
        }
      ],
      "stateMutability": "view",
      "type": "function"
    },
    {
      "inputs": [],
      "name": "patronageOwedWithTimestamp",
      "outputs": [
        {
          "internalType": "uint256",
          "name": "patronageDue",
          "type": "uint256"
        },
        {
          "internalType": "uint256",
          "name": "timestamp",
          "type": "uint256"
        }
      ],
      "stateMutability": "view",
      "type": "function"
    },
    {
      "inputs": [
        {
          "internalType": "address",
          "name": "",
          "type": "address"
        }
      ],
      "name": "patrons",
      "outputs": [
        {
          "internalType": "bool",
          "name": "",
          "type": "bool"
        }
      ],
      "stateMutability": "view",
      "type": "function"
    },
    {
      "inputs": [],
      "name": "price",
      "outputs": [
        {
          "internalType": "uint256",
          "name": "",
          "type": "uint256"
        }
      ],
      "stateMutability": "view",
      "type": "function"
    },
    {
      "inputs": [
        {
          "internalType": "address",
          "name": "",
          "type": "address"
        }
      ],
      "name": "pullFunds",
      "outputs": [
        {
          "internalType": "uint256",
          "name": "",
          "type": "uint256"
        }
      ],
      "stateMutability": "view",
      "type": "function"
    },
    {
      "inputs": [],
      "name": "timeAcquired",
      "outputs": [
        {
          "internalType": "uint256",
          "name": "",
          "type": "uint256"
        }
      ],
      "stateMutability": "view",
      "type": "function"
    },
    {
      "inputs": [
        {
          "internalType": "address",
          "name": "",
          "type": "address"
        }
      ],
      "name": "timeHeld",
      "outputs": [
        {
          "internalType": "uint256",
          "name": "",
          "type": "uint256"
        }
      ],
      "stateMutability": "view",
      "type": "function"
    },
    {
      "inputs": [],
      "name": "timeLastCollected",
      "outputs": [
        {
          "internalType": "uint256",
          "name": "",
          "type": "uint256"
        }
      ],
      "stateMutability": "view",
      "type": "function"
    },
    {
      "inputs": [],
      "name": "totalCollected",
      "outputs": [
        {
          "internalType": "uint256",
          "name": "",
          "type": "uint256"
        }
      ],
      "stateMutability": "view",
      "type": "function"
    },
    {
      "inputs": [],
      "name": "withdrawArtistFunds",
      "outputs": [],
      "stateMutability": "nonpayable",
      "type": "function"
    },
    {
      "inputs": [
        {
          "internalType": "uint256",
          "name": "_wei",
          "type": "uint256"
        }
      ],
      "name": "withdrawDeposit",
      "outputs": [],
      "stateMutability": "nonpayable",
      "type": "function"
    },
    {
      "inputs": [],
      "name": "withdrawPullFunds",
      "outputs": [],
      "stateMutability": "nonpayable",
      "type": "function"
    }
  ],
  "bytecode": "0x60806040523480156200001157600080fd5b506040516200260338038062002603833981810160405260408110156200003757600080fd5b81019080805190602001909291908051906020019092919050505060001515600d60009054906101000a900460ff16151514620000dc576040517f08c379a000000000000000000000000000000000000000000000000000000000815260040180806020018281038252601c8152602001807f5374657761726420616c726561647920696e697469616c697a65642e0000000081525060200191505060405180910390fd5b64e8d4a51000600b8190555064e8d4a51000600c8190555080600160006101000a81548173ffffffffffffffffffffffffffffffffffffffff021916908373ffffffffffffffffffffffffffffffffffffffff160217905550600160009054906101000a900473ffffffffffffffffffffffffffffffffffffffff1673ffffffffffffffffffffffffffffffffffffffff1663ba0bba406040518163ffffffff1660e01b8152600401600060405180830381600087803b158015620001a057600080fd5b505af1158015620001b5573d6000803e3d6000fd5b5050505081600560006101000a81548173ffffffffffffffffffffffffffffffffffffffff021916908373ffffffffffffffffffffffffffffffffffffffff1602179055506200020a6200022d60201b60201c565b6001600d60006101000a81548160ff021916908315150217905550505062000705565b6000600454141562000348576000600160009054906101000a900473ffffffffffffffffffffffffffffffffffffffff1673ffffffffffffffffffffffffffffffffffffffff16636352211e602a6040518263ffffffff1660e01b81526004018082815260200191505060206040518083038186803b158015620002b057600080fd5b505afa158015620002c5573d6000803e3d6000fd5b505050506040513d6020811015620002dc57600080fd5b8101908080519060200190929190505050905062000303813060006200034a60201b60201c565b8073ffffffffffffffffffffffffffffffffffffffff167f6d6bbefef62d4cb6d0e3a4dd306a71d3632319b1e03659513df86b247dd657fe60405160405180910390a2505b565b620003c06200036c600a546003546200056660201b6200176d1790919060201c565b600960008673ffffffffffffffffffffffffffffffffffffffff1673ffffffffffffffffffffffffffffffffffffffff16815260200190815260200160002054620005b860201b620017b71790919060201c565b600960008573ffffffffffffffffffffffffffffffffffffffff1673ffffffffffffffffffffffffffffffffffffffff16815260200190815260200160002081905550600160009054906101000a900473ffffffffffffffffffffffffffffffffffffffff1673ffffffffffffffffffffffffffffffffffffffff166323b872dd8484602a6040518463ffffffff1660e01b8152600401808473ffffffffffffffffffffffffffffffffffffffff1673ffffffffffffffffffffffffffffffffffffffff1681526020018373ffffffffffffffffffffffffffffffffffffffff1673ffffffffffffffffffffffffffffffffffffffff1681526020018281526020019350505050600060405180830381600087803b158015620004e257600080fd5b505af1158015620004f7573d6000803e3d6000fd5b505050508060008190555042600a819055506001600860008473ffffffffffffffffffffffffffffffffffffffff1673ffffffffffffffffffffffffffffffffffffffff16815260200190815260200160002060006101000a81548160ff021916908315150217905550505050565b6000620005b083836040518060400160405280601e81526020017f536166654d6174683a207375627472616374696f6e206f766572666c6f7700008152506200064160201b60201c565b905092915050565b60008082840190508381101562000637576040517f08c379a000000000000000000000000000000000000000000000000000000000815260040180806020018281038252601b8152602001807f536166654d6174683a206164646974696f6e206f766572666c6f77000000000081525060200191505060405180910390fd5b8091505092915050565b6000838311158290620006f2576040517f08c379a00000000000000000000000000000000000000000000000000000000081526004018080602001828103825283818151815260200191508051906020019080838360005b83811015620006b657808201518184015260208101905062000699565b50505050905090810190601f168015620006e45780820380516001836020036101000a031916815260200191505b509250505060405180910390fd5b5060008385039050809150509392505050565b611eee80620007156000396000f3fe6080604052600436106101815760003560e01c8063879d5aad116100d1578063a2b40d191161008a578063d6febde811610064578063d6febde814610634578063e29eb8361461066c578063e9fad8ee14610697578063f07af5f7146106ae57610181565b8063a2b40d19146105a3578063a97d70b1146105de578063d0e30db01461060957610181565b8063879d5aad146104605780638bb66d8a1461048b578063929417db146104bd5780639443c2e3146104e85780639fc7a65b14610513578063a035b1fe1461057857610181565b80633989e2311161013e57806355c3bf101161011857806355c3bf101461036a5780635d5a92fb146103955780635e67d521146103fa5780636c7f17fb1461041157610181565b80633989e231146102d157806343bc1612146102e85780634bd8aeac1461033f57610181565b80630ee591ba1461018657806315488b881461019d5780632ef46320146101a7578063301bd28e14610210578063325678031461026757806333289a4614610296575b600080fd5b34801561019257600080fd5b5061019b6106d9565b005b6101a5610817565b005b3480156101b357600080fd5b506101f6600480360360208110156101ca57600080fd5b81019080803573ffffffffffffffffffffffffffffffffffffffff16906020019092919050505061098b565b604051808215151515815260200191505060405180910390f35b34801561021c57600080fd5b506102256109ab565b604051808273ffffffffffffffffffffffffffffffffffffffff1673ffffffffffffffffffffffffffffffffffffffff16815260200191505060405180910390f35b34801561027357600080fd5b5061027c6109d1565b604051808215151515815260200191505060405180910390f35b3480156102a257600080fd5b506102cf600480360360208110156102b957600080fd5b81019080803590602001909291905050506109fa565b005b3480156102dd57600080fd5b506102e6610b5d565b005b3480156102f457600080fd5b506102fd610c6c565b604051808273ffffffffffffffffffffffffffffffffffffffff1673ffffffffffffffffffffffffffffffffffffffff16815260200191505060405180910390f35b34801561034b57600080fd5b50610354610c92565b6040518082815260200191505060405180910390f35b34801561037657600080fd5b5061037f610c98565b6040518082815260200191505060405180910390f35b3480156103a157600080fd5b506103e4600480360360208110156103b857600080fd5b81019080803573ffffffffffffffffffffffffffffffffffffffff169060200190929190505050610c9e565b6040518082815260200191505060405180910390f35b34801561040657600080fd5b5061040f610cb6565b005b34801561041d57600080fd5b5061044a6004803603602081101561043457600080fd5b8101908080359060200190929190505050610e3e565b6040518082815260200191505060405180910390f35b34801561046c57600080fd5b50610475610e72565b6040518082815260200191505060405180910390f35b34801561049757600080fd5b506104a0610f6b565b604051808381526020018281526020019250505060405180910390f35b3480156104c957600080fd5b506104d2610f7f565b6040518082815260200191505060405180910390f35b3480156104f457600080fd5b506104fd610fc5565b6040518082815260200191505060405180910390f35b34801561051f57600080fd5b506105626004803603602081101561053657600080fd5b81019080803573ffffffffffffffffffffffffffffffffffffffff169060200190929190505050611001565b6040518082815260200191505060405180910390f35b34801561058457600080fd5b5061058d611019565b6040518082815260200191505060405180910390f35b3480156105af57600080fd5b506105dc600480360360208110156105c657600080fd5b810190808035906020019092919050505061101f565b005b3480156105ea57600080fd5b506105f3611225565b6040518082815260200191505060405180910390f35b34801561061557600080fd5b5061061e611261565b6040518082815260200191505060405180910390f35b61066a6004803603604081101561064a57600080fd5b810190808035906020019092919080359060200190929190505050611267565b005b34801561067857600080fd5b506106816115fd565b6040518082815260200191505060405180910390f35b3480156106a357600080fd5b506106ac611603565b005b3480156106ba57600080fd5b506106c3611767565b6040518082815260200191505060405180910390f35b600560009054906101000a900473ffffffffffffffffffffffffffffffffffffffff1673ffffffffffffffffffffffffffffffffffffffff163373ffffffffffffffffffffffffffffffffffffffff161461079c576040517f08c379a000000000000000000000000000000000000000000000000000000000815260040180806020018281038252600a8152602001807f4e6f74206172746973740000000000000000000000000000000000000000000081525060200191505060405180910390fd5b600060065490506000600681905550600560009054906101000a900473ffffffffffffffffffffffffffffffffffffffff1673ffffffffffffffffffffffffffffffffffffffff166108fc829081150290604051600060405180830381858888f19350505050158015610813573d6000803e3d6000fd5b5050565b61081f610b5d565b600160009054906101000a900473ffffffffffffffffffffffffffffffffffffffff1673ffffffffffffffffffffffffffffffffffffffff16636352211e602a6040518263ffffffff1660e01b81526004018082815260200191505060206040518083038186803b15801561089357600080fd5b505afa1580156108a7573d6000803e3d6000fd5b505050506040513d60208110156108bd57600080fd5b810190808051906020019092919050505073ffffffffffffffffffffffffffffffffffffffff163373ffffffffffffffffffffffffffffffffffffffff161461096e576040517f08c379a000000000000000000000000000000000000000000000000000000000815260040180806020018281038252600a8152602001807f4e6f7420706174726f6e0000000000000000000000000000000000000000000081525060200191505060405180910390fd5b610983346004546117b790919063ffffffff16565b600481905550565b60086020528060005260406000206000915054906101000a900460ff1681565b600160009054906101000a900473ffffffffffffffffffffffffffffffffffffffff1681565b6000806109dc610f7f565b905060045481106109f15760019150506109f7565b60009150505b90565b610a02610b5d565b600160009054906101000a900473ffffffffffffffffffffffffffffffffffffffff1673ffffffffffffffffffffffffffffffffffffffff16636352211e602a6040518263ffffffff1660e01b81526004018082815260200191505060206040518083038186803b158015610a7657600080fd5b505afa158015610a8a573d6000803e3d6000fd5b505050506040513d6020811015610aa057600080fd5b810190808051906020019092919050505073ffffffffffffffffffffffffffffffffffffffff163373ffffffffffffffffffffffffffffffffffffffff1614610b51576040517f08c379a000000000000000000000000000000000000000000000000000000000815260040180806020018281038252600a8152602001807f4e6f7420706174726f6e0000000000000000000000000000000000000000000081525060200191505060405180910390fd5b610b5a8161183f565b50565b6000805414610c6a576000610b70610f7f565b90506004548110610bda57610bca610bb982610bab600454610b9d6003544261176d90919063ffffffff16565b61192490919063ffffffff16565b6119aa90919063ffffffff16565b6003546117b790919063ffffffff16565b6003819055506004549050610be2565b426003819055505b610bf78160045461176d90919063ffffffff16565b600481905550610c12816002546117b790919063ffffffff16565b600281905550610c2d816006546117b790919063ffffffff16565b600681905550807f54acb82a9e70d7c289b149758d23167c915428ae854a7aa4abe5bf2f4ef29f3660405160405180910390a2610c686119f4565b505b565b600560009054906101000a900473ffffffffffffffffffffffffffffffffffffffff1681565b60065481565b600a5481565b60076020528060005260406000206000915090505481565b6000600760003373ffffffffffffffffffffffffffffffffffffffff1673ffffffffffffffffffffffffffffffffffffffff1681526020019081526020016000205411610d6b576040517f08c379a00000000000000000000000000000000000000000000000000000000081526004018080602001828103825260188152602001807f4e6f2070756c6c2066756e647320617661696c61626c652e000000000000000081525060200191505060405180910390fd5b6000600760003373ffffffffffffffffffffffffffffffffffffffff1673ffffffffffffffffffffffffffffffffffffffff1681526020019081526020016000205490506000600760003373ffffffffffffffffffffffffffffffffffffffff1673ffffffffffffffffffffffffffffffffffffffff168152602001908152602001600020819055503373ffffffffffffffffffffffffffffffffffffffff166108fc829081150290604051600060405180830381858888f19350505050158015610e3a573d6000803e3d6000fd5b5050565b6000610e6b6301e13380610e5d8460005461192490919063ffffffff16565b6119aa90919063ffffffff16565b9050919050565b600080610eb66301e13380610ea8600c54610e9a600b5460005461192490919063ffffffff16565b6119aa90919063ffffffff16565b6119aa90919063ffffffff16565b90506000610ec2610fc5565b90506000811115610ef257610ee782610ed9610fc5565b6119aa90919063ffffffff16565b420192505050610f68565b6000821115610f60576000610f05610f7f565b9050610f56610f4582610f37600454610f296003544261176d90919063ffffffff16565b61192490919063ffffffff16565b6119aa90919063ffffffff16565b6003546117b790919063ffffffff16565b9350505050610f68565b600354925050505b90565b600080610f76610f7f565b42915091509091565b6000610fc06301e13380610fb2610fa16003544261176d90919063ffffffff16565b60005461192490919063ffffffff16565b6119aa90919063ffffffff16565b905090565b600080610fd0610f7f565b90506004548110610fe5576000915050610ffe565b610ffa8160045461176d90919063ffffffff16565b9150505b90565b60096020528060005260406000206000915090505481565b60005481565b611027610b5d565b600160009054906101000a900473ffffffffffffffffffffffffffffffffffffffff1673ffffffffffffffffffffffffffffffffffffffff16636352211e602a6040518263ffffffff1660e01b81526004018082815260200191505060206040518083038186803b15801561109b57600080fd5b505afa1580156110af573d6000803e3d6000fd5b505050506040513d60208110156110c557600080fd5b810190808051906020019092919050505073ffffffffffffffffffffffffffffffffffffffff163373ffffffffffffffffffffffffffffffffffffffff1614611176576040517f08c379a000000000000000000000000000000000000000000000000000000000815260040180806020018281038252600a8152602001807f4e6f7420706174726f6e0000000000000000000000000000000000000000000081525060200191505060405180910390fd5b600081116111ec576040517f08c379a000000000000000000000000000000000000000000000000000000000815260040180806020018281038252600d8152602001807f5072696365206973207a65726f0000000000000000000000000000000000000081525060200191505060405180910390fd5b806000819055506000547f854d6511a28585103049c7770618450f7c9aeb580c69db2913d63869663f475160405160405180910390a250565b6000600a5460035411156112595761125261124d600a5460035461176d90919063ffffffff16565b610e3e565b905061125e565b600090505b90565b60045481565b61126f610b5d565b80600054146112e6576040517f08c379a00000000000000000000000000000000000000000000000000000000081526004018080602001828103825260178152602001807f43757272656e7420507269636520696e636f727265637400000000000000000081525060200191505060405180910390fd5b6000821161135c576040517f08c379a000000000000000000000000000000000000000000000000000000000815260040180806020018281038252600d8152602001807f5072696365206973207a65726f0000000000000000000000000000000000000081525060200191505060405180910390fd5b60005434116113d3576040517f08c379a000000000000000000000000000000000000000000000000000000000815260040180806020018281038252600a8152602001807f4e6f7420656e6f7567680000000000000000000000000000000000000000000081525060200191505060405180910390fd5b6000600160009054906101000a900473ffffffffffffffffffffffffffffffffffffffff1673ffffffffffffffffffffffffffffffffffffffff16636352211e602a6040518263ffffffff1660e01b81526004018082815260200191505060206040518083038186803b15801561144957600080fd5b505afa15801561145d573d6000803e3d6000fd5b505050506040513d602081101561147357600080fd5b81019080805190602001909291905050509050600061149f6004546000546117b790919063ffffffff16565b9050600081111561158657600082905060008173ffffffffffffffffffffffffffffffffffffffff166108fc849081150290604051600060405180830381858888f193505050509050806115835761153f83600760008773ffffffffffffffffffffffffffffffffffffffff1673ffffffffffffffffffffffffffffffffffffffff168152602001908152602001600020546117b790919063ffffffff16565b600760008673ffffffffffffffffffffffffffffffffffffffff1673ffffffffffffffffffffffffffffffffffffffff168152602001908152602001600020819055505b50505b426003819055506115a26000543461176d90919063ffffffff16565b6004819055506115b3823386611b05565b833373ffffffffffffffffffffffffffffffffffffffff167f4f79409f494e81c38036d80aa8a6507c2cb08d90bfb2fead5519447646b3497e60405160405180910390a350505050565b60025481565b61160b610b5d565b600160009054906101000a900473ffffffffffffffffffffffffffffffffffffffff1673ffffffffffffffffffffffffffffffffffffffff16636352211e602a6040518263ffffffff1660e01b81526004018082815260200191505060206040518083038186803b15801561167f57600080fd5b505afa158015611693573d6000803e3d6000fd5b505050506040513d60208110156116a957600080fd5b810190808051906020019092919050505073ffffffffffffffffffffffffffffffffffffffff163373ffffffffffffffffffffffffffffffffffffffff161461175a576040517f08c379a000000000000000000000000000000000000000000000000000000000815260040180806020018281038252600a8152602001807f4e6f7420706174726f6e0000000000000000000000000000000000000000000081525060200191505060405180910390fd5b61176560045461183f565b565b60035481565b60006117af83836040518060400160405280601e81526020017f536166654d6174683a207375627472616374696f6e206f766572666c6f770000815250611d11565b905092915050565b600080828401905083811015611835576040517f08c379a000000000000000000000000000000000000000000000000000000000815260040180806020018281038252601b8152602001807f536166654d6174683a206164646974696f6e206f766572666c6f77000000000081525060200191505060405180910390fd5b8091505092915050565b8060045410156118b7576040517f08c379a00000000000000000000000000000000000000000000000000000000081526004018080602001828103825260148152602001807f5769746864726177696e6720746f6f206d75636800000000000000000000000081525060200191505060405180910390fd5b6118cc8160045461176d90919063ffffffff16565b6004819055503373ffffffffffffffffffffffffffffffffffffffff166108fc829081150290604051600060405180830381858888f19350505050158015611918573d6000803e3d6000fd5b506119216119f4565b50565b60008083141561193757600090506119a4565b600082840290508284828161194857fe5b041461199f576040517f08c379a0000000000000000000000000000000000000000000000000000000008152600401808060200182810382526021815260200180611e986021913960400191505060405180910390fd5b809150505b92915050565b60006119ec83836040518060400160405280601a81526020017f536166654d6174683a206469766973696f6e206279207a65726f000000000000815250611dd1565b905092915050565b60006004541415611b03576000600160009054906101000a900473ffffffffffffffffffffffffffffffffffffffff1673ffffffffffffffffffffffffffffffffffffffff16636352211e602a6040518263ffffffff1660e01b81526004018082815260200191505060206040518083038186803b158015611a7557600080fd5b505afa158015611a89573d6000803e3d6000fd5b505050506040513d6020811015611a9f57600080fd5b81019080805190602001909291905050509050611abe81306000611b05565b8073ffffffffffffffffffffffffffffffffffffffff167f6d6bbefef62d4cb6d0e3a4dd306a71d3632319b1e03659513df86b247dd657fe60405160405180910390a2505b565b611b6d611b1f600a5460035461176d90919063ffffffff16565b600960008673ffffffffffffffffffffffffffffffffffffffff1673ffffffffffffffffffffffffffffffffffffffff168152602001908152602001600020546117b790919063ffffffff16565b600960008573ffffffffffffffffffffffffffffffffffffffff1673ffffffffffffffffffffffffffffffffffffffff16815260200190815260200160002081905550600160009054906101000a900473ffffffffffffffffffffffffffffffffffffffff1673ffffffffffffffffffffffffffffffffffffffff166323b872dd8484602a6040518463ffffffff1660e01b8152600401808473ffffffffffffffffffffffffffffffffffffffff1673ffffffffffffffffffffffffffffffffffffffff1681526020018373ffffffffffffffffffffffffffffffffffffffff1673ffffffffffffffffffffffffffffffffffffffff1681526020018281526020019350505050600060405180830381600087803b158015611c8e57600080fd5b505af1158015611ca2573d6000803e3d6000fd5b505050508060008190555042600a819055506001600860008473ffffffffffffffffffffffffffffffffffffffff1673ffffffffffffffffffffffffffffffffffffffff16815260200190815260200160002060006101000a81548160ff021916908315150217905550505050565b6000838311158290611dbe576040517f08c379a00000000000000000000000000000000000000000000000000000000081526004018080602001828103825283818151815260200191508051906020019080838360005b83811015611d83578082015181840152602081019050611d68565b50505050905090810190601f168015611db05780820380516001836020036101000a031916815260200191505b509250505060405180910390fd5b5060008385039050809150509392505050565b60008083118290611e7d576040517f08c379a00000000000000000000000000000000000000000000000000000000081526004018080602001828103825283818151815260200191508051906020019080838360005b83811015611e42578082015181840152602081019050611e27565b50505050905090810190601f168015611e6f5780820380516001836020036101000a031916815260200191505b509250505060405180910390fd5b506000838581611e8957fe5b04905080915050939250505056fe536166654d6174683a206d756c7469706c69636174696f6e206f766572666c6f77a2646970667358221220358e109c807fad63a81f2671cea2baf77a38526a03bb9b5f97a228d5c4b005d464736f6c634300060a0033",
  "compiler": {
    "name": "solc",
    "version": "0.6.10+commit.00c0fcaf.Emscripten.clang",
    "optimizer": {
      "enabled": false,
      "runs": 200
    },
    "evmVersion": "petersburg"
  }
}