{
  "_format": "hh-sol-artifact-1",
  "contractName": "ERC721",
  "sourceName": "contracts/v1/ERC721.sol",
  "abi": [
    {
      "anonymous": false,
      "inputs": [
        {
          "indexed": true,
          "internalType": "address",
          "name": "from",
          "type": "address"
        },
        {
          "indexed": true,
          "internalType": "address",
          "name": "to",
          "type": "address"
        },
        {
          "indexed": true,
          "internalType": "uint256",
          "name": "tokenId",
          "type": "uint256"
        }
      ],
      "name": "Transfer",
      "type": "event"
    },
    {
      "inputs": [
        {
          "internalType": "address",
          "name": "owner",
          "type": "address"
        }
      ],
      "name": "balanceOf",
      "outputs": [
        {
          "internalType": "uint256",
          "name": "",
          "type": "uint256"
        }
      ],
      "stateMutability": "view",
      "type": "function"
    },
    {
      "inputs": [],
      "name": "baseURI",
      "outputs": [
        {
          "internalType": "string",
          "name": "",
          "type": "string"
        }
      ],
      "stateMutability": "view",
      "type": "function"
    },
    {
      "inputs": [],
      "name": "init",
      "outputs": [
        {
          "internalType": "bool",
          "name": "",
          "type": "bool"
        }
      ],
      "stateMutability": "view",
      "type": "function"
    },
    {
      "inputs": [],
      "name": "name",
      "outputs": [
        {
          "internalType": "string",
          "name": "",
          "type": "string"
        }
      ],
      "stateMutability": "view",
      "type": "function"
    },
    {
      "inputs": [
        {
          "internalType": "uint256",
          "name": "tokenId",
          "type": "uint256"
        }
      ],
      "name": "ownerOf",
      "outputs": [
        {
          "internalType": "address",
          "name": "",
          "type": "address"
        }
      ],
      "stateMutability": "view",
      "type": "function"
    },
    {
      "inputs": [],
      "name": "setup",
      "outputs": [],
      "stateMutability": "nonpayable",
      "type": "function"
    },
    {
      "inputs": [],
      "name": "steward",
      "outputs": [
        {
          "internalType": "address",
          "name": "",
          "type": "address"
        }
      ],
      "stateMutability": "view",
      "type": "function"
    },
    {
      "inputs": [
        {
          "internalType": "bytes4",
          "name": "interfaceId",
          "type": "bytes4"
        }
      ],
      "name": "supportsInterface",
      "outputs": [
        {
          "internalType": "bool",
          "name": "",
          "type": "bool"
        }
      ],
      "stateMutability": "view",
      "type": "function"
    },
    {
      "inputs": [],
      "name": "symbol",
      "outputs": [
        {
          "internalType": "string",
          "name": "",
          "type": "string"
        }
      ],
      "stateMutability": "view",
      "type": "function"
    },
    {
      "inputs": [
        {
          "internalType": "uint256",
          "name": "index",
          "type": "uint256"
        }
      ],
      "name": "tokenByIndex",
      "outputs": [
        {
          "internalType": "uint256",
          "name": "",
          "type": "uint256"
        }
      ],
      "stateMutability": "view",
      "type": "function"
    },
    {
      "inputs": [
        {
          "internalType": "address",
          "name": "owner",
          "type": "address"
        },
        {
          "internalType": "uint256",
          "name": "index",
          "type": "uint256"
        }
      ],
      "name": "tokenOfOwnerByIndex",
      "outputs": [
        {
          "internalType": "uint256",
          "name": "",
          "type": "uint256"
        }
      ],
      "stateMutability": "view",
      "type": "function"
    },
    {
      "inputs": [
        {
          "internalType": "uint256",
          "name": "tokenId",
          "type": "uint256"
        }
      ],
      "name": "tokenURI",
      "outputs": [
        {
          "internalType": "string",
          "name": "",
          "type": "string"
        }
      ],
      "stateMutability": "view",
      "type": "function"
    },
    {
      "inputs": [],
      "name": "totalSupply",
      "outputs": [
        {
          "internalType": "uint256",
          "name": "",
          "type": "uint256"
        }
      ],
      "stateMutability": "view",
      "type": "function"
    },
    {
      "inputs": [
        {
          "internalType": "address",
          "name": "from",
          "type": "address"
        },
        {
          "internalType": "address",
          "name": "to",
          "type": "address"
        },
        {
          "internalType": "uint256",
          "name": "tokenId",
          "type": "uint256"
        }
      ],
      "name": "transferFrom",
      "outputs": [],
      "stateMutability": "nonpayable",
      "type": "function"
    }
  ],
  "bytecode": "0x608060405234801561001057600080fd5b506100276301ffc9a760e01b61002c60201b60201c565b610134565b63ffffffff60e01b817bffffffffffffffffffffffffffffffffffffffffffffffffffffffff191614156100c8576040517f08c379a000000000000000000000000000000000000000000000000000000000815260040180806020018281038252601c8152602001807f4552433136353a20696e76616c696420696e746572666163652069640000000081525060200191505060405180910390fd5b6001600080837bffffffffffffffffffffffffffffffffffffffffffffffffffffffff19167bffffffffffffffffffffffffffffffffffffffffffffffffffffffff1916815260200190815260200160002060006101000a81548160ff02191690831515021790555050565b611f4f806101436000396000f3fe608060405234801561001057600080fd5b50600436106100ea5760003560e01c8063637eea191161008c57806395d89b411161006657806395d89b411461046c578063ba0bba40146104ef578063c87b56dd146104f9578063e1c7392a146105a0576100ea565b8063637eea191461035d5780636c0360eb1461039157806370a0823114610414576100ea565b806323b872dd116100c857806323b872dd146101f35780632f745c59146102615780634f6ccce7146102c35780636352211e14610305576100ea565b806301ffc9a7146100ef57806306fdde031461015257806318160ddd146101d5575b600080fd5b61013a6004803603602081101561010557600080fd5b8101908080357bffffffffffffffffffffffffffffffffffffffffffffffffffffffff191690602001909291905050506105c0565b60405180821515815260200191505060405180910390f35b61015a610627565b6040518080602001828103825283818151815260200191508051906020019080838360005b8381101561019a57808201518184015260208101905061017f565b50505050905090810190601f1680156101c75780820380516001836020036101000a031916815260200191505b509250505060405180910390f35b6101dd6106c9565b6040518082815260200191505060405180910390f35b61025f6004803603606081101561020957600080fd5b81019080803573ffffffffffffffffffffffffffffffffffffffff169060200190929190803573ffffffffffffffffffffffffffffffffffffffff169060200190929190803590602001909291905050506106da565b005b6102ad6004803603604081101561027757600080fd5b81019080803573ffffffffffffffffffffffffffffffffffffffff16906020019092919080359060200190929190505050610749565b6040518082815260200191505060405180910390f35b6102ef600480360360208110156102d957600080fd5b81019080803590602001909291905050506107a4565b6040518082815260200191505060405180910390f35b6103316004803603602081101561031b57600080fd5b81019080803590602001909291905050506107c7565b604051808273ffffffffffffffffffffffffffffffffffffffff16815260200191505060405180910390f35b6103656107fe565b604051808273ffffffffffffffffffffffffffffffffffffffff16815260200191505060405180910390f35b610399610824565b6040518080602001828103825283818151815260200191508051906020019080838360005b838110156103d95780820151818401526020810190506103be565b50505050905090810190601f1680156104065780820380516001836020036101000a031916815260200191505b509250505060405180910390f35b6104566004803603602081101561042a57600080fd5b81019080803573ffffffffffffffffffffffffffffffffffffffff1690602001909291905050506108c6565b6040518082815260200191505060405180910390f35b61047461099b565b6040518080602001828103825283818151815260200191508051906020019080838360005b838110156104b4578082015181840152602081019050610499565b50505050905090810190601f1680156104e15780820380516001836020036101000a031916815260200191505b509250505060405180910390f35b6104f7610a3d565b005b6105256004803603602081101561050f57600080fd5b8101908080359060200190929190505050610c3c565b6040518080602001828103825283818151815260200191508051906020019080838360005b8381101561056557808201518184015260208101905061054a565b50505050905090810190601f1680156105925780820380516001836020036101000a031916815260200191505b509250505060405180910390f35b6105a8610f25565b60405180821515815260200191505060405180910390f35b6000806000837bffffffffffffffffffffffffffffffffffffffffffffffffffffffff19167bffffffffffffffffffffffffffffffffffffffffffffffffffffffff1916815260200190815260200160002060009054906101000a900460ff169050919050565b606060048054600181600116156101000203166002900480601f0160208091040260200160405190810160405280929190818152602001828054600181600116156101000203166002900480156106bf5780601f10610694576101008083540402835291602001916106bf565b820191906000526020600020905b8154815290600101906020018083116106a257829003601f168201915b5050505050905090565b60006106d56002610f38565b905090565b6106e43382610f4d565b610739576040517f08c379a0000000000000000000000000000000000000000000000000000000008152600401808060200182810382526027815260200180611ef36027913960400191505060405180910390fd5b610744838383611006565b505050565b600061079c82600160008673ffffffffffffffffffffffffffffffffffffffff1673ffffffffffffffffffffffffffffffffffffffff16815260200190815260200160002061123390919063ffffffff16565b905092915050565b6000806107bb83600261124d90919063ffffffff16565b50905080915050919050565b60006107f782604051806060016040528060298152602001611df66029913960026112799092919063ffffffff16565b9050919050565b600860009054906101000a900473ffffffffffffffffffffffffffffffffffffffff1681565b606060078054600181600116156101000203166002900480601f0160208091040260200160405190810160405280929190818152602001828054600181600116156101000203166002900480156108bc5780601f10610891576101008083540402835291602001916108bc565b820191906000526020600020905b81548152906001019060200180831161089f57829003601f168201915b5050505050905090565b60008073ffffffffffffffffffffffffffffffffffffffff168273ffffffffffffffffffffffffffffffffffffffff16141561094d576040517f08c379a000000000000000000000000000000000000000000000000000000000815260040180806020018281038252602a815260200180611dcc602a913960400191505060405180910390fd5b610994600160008473ffffffffffffffffffffffffffffffffffffffff1673ffffffffffffffffffffffffffffffffffffffff168152602001908152602001600020611298565b9050919050565b606060058054600181600116156101000203166002900480601f016020809104026020016040519081016040528092919081815260200182805460018160011615610100020316600290048015610a335780601f10610a0857610100808354040283529160200191610a33565b820191906000526020600020905b815481529060010190602001808311610a1657829003601f168201915b5050505050905090565b60001515600860149054906101000a900460ff16151514610ac6576040517f08c379a000000000000000000000000000000000000000000000000000000000815260040180806020018281038252601c8152602001807f417274776f726b20616c726561647920696e697469616c697a65642e0000000081525060200191505060405180910390fd5b6040518060400160405280601e81526020017f5468697320417274776f726b20497320416c77617973204f6e2053616c65000081525060049080519060200190610b11929190611cbc565b506040518060400160405280600681526020017f544149414f53000000000000000000000000000000000000000000000000000081525060059080519060200190610b5d929190611cbc565b5033600860006101000a81548173ffffffffffffffffffffffffffffffffffffffff021916908373ffffffffffffffffffffffffffffffffffffffff160217905550610bcc600860009054906101000a900473ffffffffffffffffffffffffffffffffffffffff16602a6112ad565b610bef602a6040518060600160405280602e8152602001611ec5602e9139611495565b610bff6380ac58cd60e01b61151f565b610c0f635b5e139f60e01b61151f565b610c1f63780e9d6360e01b61151f565b6001600860146101000a81548160ff021916908315150217905550565b6060610c4782611627565b610c9c576040517f08c379a000000000000000000000000000000000000000000000000000000000815260040180806020018281038252602f815260200180611e96602f913960400191505060405180910390fd5b6060600660008481526020019081526020016000208054600181600116156101000203166002900480601f016020809104026020016040519081016040528092919081815260200182805460018160011615610100020316600290048015610d455780601f10610d1a57610100808354040283529160200191610d45565b820191906000526020600020905b815481529060010190602001808311610d2857829003601f168201915b50505050509050600060078054600181600116156101000203166002900490501415610d745780915050610f20565b600081511115610e4d576007816040516020018083805460018160011615610100020316600290048015610ddf5780601f10610dbd576101008083540402835291820191610ddf565b820191906000526020600020905b815481529060010190602001808311610dcb575b505082805190602001908083835b60208310610e105780518252602082019150602081019050602083039250610ded565b6001836020036101000a03801982511681845116808217855250505050505090500192505050604051602081830303815290604052915050610f20565b6007610e5884611644565b6040516020018083805460018160011615610100020316600290048015610eb65780601f10610e94576101008083540402835291820191610eb6565b820191906000526020600020905b815481529060010190602001808311610ea2575b505082805190602001908083835b60208310610ee75780518252602082019150602081019050602083039250610ec4565b6001836020036101000a038019825116818451168082178552505050505050905001925050506040516020818303038152906040529150505b919050565b600860149054906101000a900460ff1681565b6000610f468260000161178b565b9050919050565b6000610f5882611627565b610fad576040517f08c379a000000000000000000000000000000000000000000000000000000000815260040180806020018281038252602c815260200180611da0602c913960400191505060405180910390fd5b600860009054906101000a900473ffffffffffffffffffffffffffffffffffffffff1673ffffffffffffffffffffffffffffffffffffffff168373ffffffffffffffffffffffffffffffffffffffff1614905092915050565b8273ffffffffffffffffffffffffffffffffffffffff16611026826107c7565b73ffffffffffffffffffffffffffffffffffffffff1614611092576040517f08c379a0000000000000000000000000000000000000000000000000000000008152600401808060200182810382526029815260200180611e6d6029913960400191505060405180910390fd5b600073ffffffffffffffffffffffffffffffffffffffff168273ffffffffffffffffffffffffffffffffffffffff161415611118576040517f08c379a0000000000000000000000000000000000000000000000000000000008152600401808060200182810382526024815260200180611d7c6024913960400191505060405180910390fd5b61116981600160008673ffffffffffffffffffffffffffffffffffffffff1673ffffffffffffffffffffffffffffffffffffffff16815260200190815260200160002061179c90919063ffffffff16565b506111bb81600160008573ffffffffffffffffffffffffffffffffffffffff1673ffffffffffffffffffffffffffffffffffffffff1681526020019081526020016000206117b690919063ffffffff16565b506111d2818360026117d09092919063ffffffff16565b50808273ffffffffffffffffffffffffffffffffffffffff168473ffffffffffffffffffffffffffffffffffffffff167fddf252ad1be2c89b69c2b068fc378daa952ba7f163c4a11628f55a4df523b3ef60405160405180910390a4505050565b60006112428360000183611805565b60001c905092915050565b6000806000806112608660000186611888565b915091508160001c8160001c9350935050509250929050565b600061128c846000018460001b84611921565b60001c90509392505050565b60006112a682600001611a17565b9050919050565b600073ffffffffffffffffffffffffffffffffffffffff168273ffffffffffffffffffffffffffffffffffffffff161415611350576040517f08c379a00000000000000000000000000000000000000000000000000000000081526004018080602001828103825260208152602001807f4552433732313a206d696e7420746f20746865207a65726f206164647265737381525060200191505060405180910390fd5b61135981611627565b156113cc576040517f08c379a000000000000000000000000000000000000000000000000000000000815260040180806020018281038252601c8152602001807f4552433732313a20746f6b656e20616c7265616479206d696e7465640000000081525060200191505060405180910390fd5b61141d81600160008573ffffffffffffffffffffffffffffffffffffffff1673ffffffffffffffffffffffffffffffffffffffff1681526020019081526020016000206117b690919063ffffffff16565b50611434818360026117d09092919063ffffffff16565b50808273ffffffffffffffffffffffffffffffffffffffff16600073ffffffffffffffffffffffffffffffffffffffff167fddf252ad1be2c89b69c2b068fc378daa952ba7f163c4a11628f55a4df523b3ef60405160405180910390a45050565b61149e82611627565b6114f3576040517f08c379a000000000000000000000000000000000000000000000000000000000815260040180806020018281038252602c815260200180611e41602c913960400191505060405180910390fd5b8060066000848152602001908152602001600020908051906020019061151a929190611cbc565b505050565b63ffffffff60e01b817bffffffffffffffffffffffffffffffffffffffffffffffffffffffff191614156115bb576040517f08c379a000000000000000000000000000000000000000000000000000000000815260040180806020018281038252601c8152602001807f4552433136353a20696e76616c696420696e746572666163652069640000000081525060200191505060405180910390fd5b6001600080837bffffffffffffffffffffffffffffffffffffffffffffffffffffffff19167bffffffffffffffffffffffffffffffffffffffffffffffffffffffff1916815260200190815260200160002060006101000a81548160ff02191690831515021790555050565b600061163d826002611a2890919063ffffffff16565b9050919050565b6060600082141561168c576040518060400160405280600181526020017f30000000000000000000000000000000000000000000000000000000000000008152509050611786565b600082905060005b600082146116b6578080600101915050600a82816116ae57fe5b049150611694565b60608167ffffffffffffffff811180156116cf57600080fd5b506040519080825280601f01601f1916602001820160405280156117025781602001600182028036833780820191505090505b50905060006001830390508593505b6000841461177e57600a848161172357fe5b0660300160f81b8282806001900393508151811061173d57fe5b60200101907effffffffffffffffffffffffffffffffffffffffffffffffffffffffffffff1916908160001a905350600a848161177657fe5b049350611711565b819450505050505b919050565b600081600001805490509050919050565b60006117ae836000018360001b611a42565b905092915050565b60006117c8836000018360001b611b2a565b905092915050565b60006117fc846000018460001b8473ffffffffffffffffffffffffffffffffffffffff1660001b611b9a565b90509392505050565b600081836000018054905011611866576040517f08c379a0000000000000000000000000000000000000000000000000000000008152600401808060200182810382526022815260200180611d5a6022913960400191505060405180910390fd5b82600001828154811061187557fe5b9060005260206000200154905092915050565b600080828460000180549050116118ea576040517f08c379a0000000000000000000000000000000000000000000000000000000008152600401808060200182810382526022815260200180611e1f6022913960400191505060405180910390fd5b60008460000184815481106118fb57fe5b906000526020600020906002020190508060000154816001015492509250509250929050565b600080846001016000858152602001908152602001600020549050600081141583906119e8576040517f08c379a00000000000000000000000000000000000000000000000000000000081526004018080602001828103825283818151815260200191508051906020019080838360005b838110156119ad578082015181840152602081019050611992565b50505050905090810190601f1680156119da5780820380516001836020036101000a031916815260200191505b509250505060405180910390fd5b508460000160018203815481106119fb57fe5b9060005260206000209060020201600101549150509392505050565b600081600001805490509050919050565b6000611a3a836000018360001b611c76565b905092915050565b60008083600101600084815260200190815260200160002054905060008114611b1e5760006001820390506000600186600001805490500390506000866000018281548110611a8d57fe5b9060005260206000200154905080876000018481548110611aaa57fe5b9060005260206000200181905550600183018760010160008381526020019081526020016000208190555086600001805480611ae257fe5b60019003818190600052602060002001600090559055866001016000878152602001908152602001600020600090556001945050505050611b24565b60009150505b92915050565b6000611b368383611c99565b611b8f578260000182908060018154018082558091505060019003906000526020600020016000909190919091505582600001805490508360010160008481526020019081526020016000208190555060019050611b94565b600090505b92915050565b6000808460010160008581526020019081526020016000205490506000811415611c4157846000016040518060400160405280868152602001858152509080600181540180825580915050600190039060005260206000209060020201600090919091909150600082015181600001556020820151816001015550508460000180549050856001016000868152602001908152602001600020819055506001915050611c6f565b82856000016001830381548110611c5457fe5b90600052602060002090600202016001018190555060009150505b9392505050565b600080836001016000848152602001908152602001600020541415905092915050565b600080836001016000848152602001908152602001600020541415905092915050565b828054600181600116156101000203166002900490600052602060002090601f016020900481019282601f10611cfd57805160ff1916838001178555611d2b565b82800160010185558215611d2b579182015b82811115611d2a578251825591602001919060010190611d0f565b5b509050611d389190611d3c565b5090565b5b80821115611d55576000816000905550600101611d3d565b509056fe456e756d657261626c655365743a20696e646578206f7574206f6620626f756e64734552433732313a207472616e7366657220746f20746865207a65726f20616464726573734552433732313a206f70657261746f7220717565727920666f72206e6f6e6578697374656e7420746f6b656e4552433732313a2062616c616e636520717565727920666f7220746865207a65726f20616464726573734552433732313a206f776e657220717565727920666f72206e6f6e6578697374656e7420746f6b656e456e756d657261626c654d61703a20696e646578206f7574206f6620626f756e64734552433732314d657461646174613a2055524920736574206f66206e6f6e6578697374656e7420746f6b656e4552433732313a207472616e73666572206f6620746f6b656e2074686174206973206e6f74206f776e4552433732314d657461646174613a2055524920717565727920666f72206e6f6e6578697374656e7420746f6b656e68747470733a2f2f74686973617274776f726b6973616c776179736f6e73616c652e636f6d2f6d657461646174614552433732313a207472616e736665722063616c6c6572206973206e6f7420737465776172642ea26469706673582212206ff3a8b6c7155db8b0cc51caa42dea4d0e2bacc36219bc6bd6884275287e35d464736f6c63430007030033",
  "linkReferences": {},
  "deployedLinkReferences": {}
}