{
  "_format": "hh-sol-artifact-1",
  "contractName": "Router",
  "sourceName": "contracts/v1/Router.sol",
  "abi": [
    {
      "inputs": [
        {
          "internalType": "address",
          "name": "_steward",
          "type": "address"
        }
      ],
      "stateMutability": "nonpayable",
      "type": "constructor"
    },
    {
      "stateMutability": "payable",
      "type": "fallback"
    },
    {
      "inputs": [
        {
          "internalType": "uint256",
          "name": "currentPrice",
          "type": "uint256"
        }
      ],
      "name": "buy",
      "outputs": [],
      "stateMutability": "payable",
      "type": "function"
    },
    {
      "inputs": [
        {
          "internalType": "bool",
          "name": "_tb",
          "type": "bool"
        }
      ],
      "name": "setBlock",
      "outputs": [],
      "stateMutability": "nonpayable",
      "type": "function"
    },
    {
      "inputs": [],
      "name": "toBlock",
      "outputs": [
        {
          "internalType": "bool",
          "name": "",
          "type": "bool"
        }
      ],
      "stateMutability": "view",
      "type": "function"
    },
    {
      "inputs": [],
      "name": "withdrawPullFunds",
      "outputs": [],
      "stateMutability": "nonpayable",
      "type": "function"
    }
  ],
  "bytecode": "0x60806040526001600060146101000a81548160ff02191690831515021790555034801561002b57600080fd5b506040516104853803806104858339818101604052602081101561004e57600080fd5b8101908080519060200190929190505050806000806101000a81548173ffffffffffffffffffffffffffffffffffffffff021916908373ffffffffffffffffffffffffffffffffffffffff160217905550506103d6806100af6000396000f3fe6080604052600436106100435760003560e01c80635e67d521146100c957806397006591146100e0578063d96a094a1461010d578063f3ab94ab1461013b57610044565b5b600060149054906101000a900460ff16156100c7576040517f08c379a00000000000000000000000000000000000000000000000000000000081526004018080602001828103825260078152602001807f626c6f636b65640000000000000000000000000000000000000000000000000081525060200191505060405180910390fd5b005b3480156100d557600080fd5b506100de610178565b005b3480156100ec57600080fd5b506100f56101fa565b60405180821515815260200191505060405180910390f35b6101396004803603602081101561012357600080fd5b810190808035906020019092919050505061020d565b005b34801561014757600080fd5b506101766004803603602081101561015e57600080fd5b81019080803515159060200190929190505050610383565b005b60008054906101000a900473ffffffffffffffffffffffffffffffffffffffff1673ffffffffffffffffffffffffffffffffffffffff16635e67d5216040518163ffffffff1660e01b8152600401600060405180830381600087803b1580156101e057600080fd5b505af11580156101f4573d6000803e3d6000fd5b50505050565b600060149054906101000a900460ff1681565b60008054906101000a900473ffffffffffffffffffffffffffffffffffffffff1673ffffffffffffffffffffffffffffffffffffffff1634670de0b6b3a76400008360405160240180838152602001828152602001925050506040516020818303038152906040527fd6febde8000000000000000000000000000000000000000000000000000000007bffffffffffffffffffffffffffffffffffffffffffffffffffffffff19166020820180517bffffffffffffffffffffffffffffffffffffffffffffffffffffffff83818316178352505050506040518082805190602001908083835b6020831061031657805182526020820191506020810190506020830392506102f3565b6001836020036101000a03801982511681845116808217855250505050505090500191505060006040518083038185875af1925050503d8060008114610378576040519150601f19603f3d011682016040523d82523d6000602084013e61037d565b606091505b50505050565b80600060146101000a81548160ff0219169083151502179055505056fea26469706673582212205a9241d14a34cfcd2beea1a11dbb8f149427cff5eb0e5f586096a4ec45b6e8c864736f6c63430007030033",
  "linkReferences": {},
  "deployedLinkReferences": {}
}