{
  "_format": "hh-sol-artifact-1",
  "contractName": "BlockReceiver",
  "sourceName": "contracts/v1/BlockReceiver.sol",
  "abi": [
    {
      "inputs": [
        {
          "internalType": "address",
          "name": "_steward",
          "type": "address"
        }
      ],
      "stateMutability": "nonpayable",
      "type": "constructor"
    },
    {
      "inputs": [
        {
          "internalType": "uint256",
          "name": "currentPrice",
          "type": "uint256"
        }
      ],
      "name": "buy",
      "outputs": [],
      "stateMutability": "payable",
      "type": "function"
    },
    {
      "inputs": [],
      "name": "withdrawPullFunds",
      "outputs": [],
      "stateMutability": "nonpayable",
      "type": "function"
    }
  ],
  "bytecode": "0x608060405234801561001057600080fd5b5060405161033b38038061033b8339818101604052602081101561003357600080fd5b8101908080519060200190929190505050806000806101000a81548173ffffffffffffffffffffffffffffffffffffffff021916908373ffffffffffffffffffffffffffffffffffffffff160217905550506102a7806100946000396000f3fe6080604052600436106100295760003560e01c80635e67d5211461002e578063d96a094a14610045575b600080fd5b34801561003a57600080fd5b50610043610073565b005b6100716004803603602081101561005b57600080fd5b81019080803590602001909291905050506100f5565b005b60008054906101000a900473ffffffffffffffffffffffffffffffffffffffff1673ffffffffffffffffffffffffffffffffffffffff16635e67d5216040518163ffffffff1660e01b8152600401600060405180830381600087803b1580156100db57600080fd5b505af11580156100ef573d6000803e3d6000fd5b50505050565b6000670de0b6b3a7640000905060008054906101000a900473ffffffffffffffffffffffffffffffffffffffff1673ffffffffffffffffffffffffffffffffffffffff1634828460405160240180838152602001828152602001925050506040516020818303038152906040527fd6febde8000000000000000000000000000000000000000000000000000000007bffffffffffffffffffffffffffffffffffffffffffffffffffffffff19166020820180517bffffffffffffffffffffffffffffffffffffffffffffffffffffffff83818316178352505050506040518082805190602001908083835b6020831061020357805182526020820191506020810190506020830392506101e0565b6001836020036101000a03801982511681845116808217855250505050505090500191505060006040518083038185875af1925050503d8060008114610265576040519150601f19603f3d011682016040523d82523d6000602084013e61026a565b606091505b505050505056fea2646970667358221220baf2fea225c9b2ad04e745dc7a7ffd227211a8839335041a27ccdd9125a1d02e64736f6c63430007030033",
  "linkReferences": {},
  "deployedLinkReferences": {}
}