{
  "_format": "hh-sol-artifact-1",
  "contractName": "Restorer",
  "sourceName": "contracts/v1/Restorer.sol",
  "abi": [
    {
      "inputs": [
        {
          "internalType": "address",
          "name": "_oldV1Address",
          "type": "address"
        },
        {
          "internalType": "address",
          "name": "_oldStewardAddress",
          "type": "address"
        },
        {
          "internalType": "address payable",
          "name": "_artist",
          "type": "address"
        }
      ],
      "stateMutability": "nonpayable",
      "type": "constructor"
    },
    {
      "inputs": [],
      "name": "artist",
      "outputs": [
        {
          "internalType": "address payable",
          "name": "",
          "type": "address"
        }
      ],
      "stateMutability": "view",
      "type": "function"
    },
    {
      "inputs": [],
      "name": "newArtSteward",
      "outputs": [
        {
          "internalType": "contract ArtSteward",
          "name": "",
          "type": "address"
        }
      ],
      "stateMutability": "view",
      "type": "function"
    },
    {
      "inputs": [],
      "name": "newV1",
      "outputs": [
        {
          "internalType": "contract ERC721",
          "name": "",
          "type": "address"
        }
      ],
      "stateMutability": "view",
      "type": "function"
    },
    {
      "inputs": [],
      "name": "restore",
      "outputs": [],
      "stateMutability": "payable",
      "type": "function"
    },
    {
      "inputs": [],
      "name": "restored",
      "outputs": [
        {
          "internalType": "bool",
          "name": "",
          "type": "bool"
        }
      ],
      "stateMutability": "view",
      "type": "function"
    },
    {
      "inputs": [],
      "name": "snapshotBlockNumber",
      "outputs": [
        {
          "internalType": "uint256",
          "name": "",
          "type": "uint256"
        }
      ],
      "stateMutability": "view",
      "type": "function"
    },
    {
      "inputs": [],
      "name": "snapshotOwner",
      "outputs": [
        {
          "internalType": "address",
          "name": "",
          "type": "address"
        }
      ],
      "stateMutability": "view",
      "type": "function"
    },
    {
      "inputs": [],
      "name": "snapshotPrice",
      "outputs": [
        {
          "internalType": "uint256",
          "name": "",
          "type": "uint256"
        }
      ],
      "stateMutability": "view",
      "type": "function"
    }
  ],
  "bytecode": "0x60806040526000600760146101000a81548160ff02191690831515021790555034801561002b57600080fd5b506040516157753803806157758339818101604052606081101561004e57600080fd5b81019080805190602001909291908051906020019092919080519060200190929190505050826000806101000a81548173ffffffffffffffffffffffffffffffffffffffff021916908373ffffffffffffffffffffffffffffffffffffffff16021790555081600160006101000a81548173ffffffffffffffffffffffffffffffffffffffff021916908373ffffffffffffffffffffffffffffffffffffffff16021790555080600560006101000a81548173ffffffffffffffffffffffffffffffffffffffff021916908373ffffffffffffffffffffffffffffffffffffffff160217905550600160009054906101000a900473ffffffffffffffffffffffffffffffffffffffff1673ffffffffffffffffffffffffffffffffffffffff1663a035b1fe6040518163ffffffff1660e01b815260040160206040518083038186803b15801561019d57600080fd5b505afa1580156101b1573d6000803e3d6000fd5b505050506040513d60208110156101c757600080fd5b810190808051906020019092919050505060038190555060008054906101000a900473ffffffffffffffffffffffffffffffffffffffff1673ffffffffffffffffffffffffffffffffffffffff16636352211e602a6040518263ffffffff1660e01b81526004018082815260200191505060206040518083038186803b15801561025057600080fd5b505afa158015610264573d6000803e3d6000fd5b505050506040513d602081101561027a57600080fd5b8101908080519060200190929190505050600260006101000a81548173ffffffffffffffffffffffffffffffffffffffff021916908373ffffffffffffffffffffffffffffffffffffffff160217905550436004819055506040516102de906104b7565b604051809103906000f0801580156102fa573d6000803e3d6000fd5b50600660006101000a81548173ffffffffffffffffffffffffffffffffffffffff021916908373ffffffffffffffffffffffffffffffffffffffff160217905550600560009054906101000a900473ffffffffffffffffffffffffffffffffffffffff16600660009054906101000a900473ffffffffffffffffffffffffffffffffffffffff16600354600260009054906101000a900473ffffffffffffffffffffffffffffffffffffffff1660008054906101000a900473ffffffffffffffffffffffffffffffffffffffff166040516103d4906104c4565b808673ffffffffffffffffffffffffffffffffffffffff1681526020018573ffffffffffffffffffffffffffffffffffffffff1681526020018481526020018373ffffffffffffffffffffffffffffffffffffffff1681526020018273ffffffffffffffffffffffffffffffffffffffff16815260200195505050505050604051809103906000f08015801561046e573d6000803e3d6000fd5b50600760006101000a81548173ffffffffffffffffffffffffffffffffffffffff021916908373ffffffffffffffffffffffffffffffffffffffff1602179055505050506104d1565b61209280610b5e83390190565b612b8580612bf083390190565b61067e806104e06000396000f3fe60806040526004361061007b5760003560e01c80634d7155241161004e5780634d7155241461013957806365ad34c71461017a578063f25e7108146101bb578063fb76f708146101e65761007b565b80630b44d697146100805780632fda332e146100ad578063387c5e51146100b757806343bc1612146100f8575b600080fd5b34801561008c57600080fd5b50610095610211565b60405180821515815260200191505060405180910390f35b6100b5610224565b005b3480156100c357600080fd5b506100cc61057d565b604051808273ffffffffffffffffffffffffffffffffffffffff16815260200191505060405180910390f35b34801561010457600080fd5b5061010d6105a3565b604051808273ffffffffffffffffffffffffffffffffffffffff16815260200191505060405180910390f35b34801561014557600080fd5b5061014e6105c9565b604051808273ffffffffffffffffffffffffffffffffffffffff16815260200191505060405180910390f35b34801561018657600080fd5b5061018f6105ef565b604051808273ffffffffffffffffffffffffffffffffffffffff16815260200191505060405180910390f35b3480156101c757600080fd5b506101d0610615565b6040518082815260200191505060405180910390f35b3480156101f257600080fd5b506101fb61061b565b6040518082815260200191505060405180910390f35b600760149054906101000a900460ff1681565b600260009054906101000a900473ffffffffffffffffffffffffffffffffffffffff1673ffffffffffffffffffffffffffffffffffffffff163373ffffffffffffffffffffffffffffffffffffffff16146102ca576040517f08c379a00000000000000000000000000000000000000000000000000000000081526004018080602001828103825260278152602001806106226027913960400191505060405180910390fd5b6000629896806003540190506706f05b59d3b200008101341015610356576040517f08c379a000000000000000000000000000000000000000000000000000000000815260040180806020018281038252601e8152602001807f4e6f7420656e6f7567682045544820666f7220726573746f726174696f6e000081525060200191505060405180910390fd5b60001515600760149054906101000a900460ff161515146103df576040517f08c379a00000000000000000000000000000000000000000000000000000000081526004018080602001828103825260168152602001807f43616e206f6e6c7920726573746f7265206f6e63652e0000000000000000000081525060200191505060405180910390fd5b600160009054906101000a900473ffffffffffffffffffffffffffffffffffffffff1673ffffffffffffffffffffffffffffffffffffffff1663d96a094a8260646040518363ffffffff1660e01b8152600401808281526020019150506000604051808303818588803b15801561045557600080fd5b505af1158015610469573d6000803e3d6000fd5b5050505050600760009054906101000a900473ffffffffffffffffffffffffffffffffffffffff1673ffffffffffffffffffffffffffffffffffffffff16632fda332e6706f05b59d3b200006040518263ffffffff1660e01b81526004016000604051808303818588803b1580156104e057600080fd5b505af11580156104f4573d6000803e3d6000fd5b50505050506706f05b59d3b20000810134111561055f573373ffffffffffffffffffffffffffffffffffffffff166108fc6706f05b59d3b20000833403039081150290604051600060405180830381858888f1935050505015801561055d573d6000803e3d6000fd5b505b6001600760146101000a81548160ff02191690831515021790555050565b600660009054906101000a900473ffffffffffffffffffffffffffffffffffffffff1681565b600560009054906101000a900473ffffffffffffffffffffffffffffffffffffffff1681565b600760009054906101000a900473ffffffffffffffffffffffffffffffffffffffff1681565b600260009054906101000a900473ffffffffffffffffffffffffffffffffffffffff1681565b60045481565b6003548156fe4f6e6c7920736e617073686f74206f776e6572206d617920726573746f726520617274776f726ba26469706673582212207deab73022ac25514ce46e975ecb9a74cf0a89bc4808a18e651f440c3a0763da64736f6c63430007030033608060405234801561001057600080fd5b506100276301ffc9a760e01b61002c60201b60201c565b610134565b63ffffffff60e01b817bffffffffffffffffffffffffffffffffffffffffffffffffffffffff191614156100c8576040517f08c379a000000000000000000000000000000000000000000000000000000000815260040180806020018281038252601c8152602001807f4552433136353a20696e76616c696420696e746572666163652069640000000081525060200191505060405180910390fd5b6001600080837bffffffffffffffffffffffffffffffffffffffffffffffffffffffff19167bffffffffffffffffffffffffffffffffffffffffffffffffffffffff1916815260200190815260200160002060006101000a81548160ff02191690831515021790555050565b611f4f806101436000396000f3fe608060405234801561001057600080fd5b50600436106100ea5760003560e01c8063637eea191161008c57806395d89b411161006657806395d89b411461046c578063ba0bba40146104ef578063c87b56dd146104f9578063e1c7392a146105a0576100ea565b8063637eea191461035d5780636c0360eb1461039157806370a0823114610414576100ea565b806323b872dd116100c857806323b872dd146101f35780632f745c59146102615780634f6ccce7146102c35780636352211e14610305576100ea565b806301ffc9a7146100ef57806306fdde031461015257806318160ddd146101d5575b600080fd5b61013a6004803603602081101561010557600080fd5b8101908080357bffffffffffffffffffffffffffffffffffffffffffffffffffffffff191690602001909291905050506105c0565b60405180821515815260200191505060405180910390f35b61015a610627565b6040518080602001828103825283818151815260200191508051906020019080838360005b8381101561019a57808201518184015260208101905061017f565b50505050905090810190601f1680156101c75780820380516001836020036101000a031916815260200191505b509250505060405180910390f35b6101dd6106c9565b6040518082815260200191505060405180910390f35b61025f6004803603606081101561020957600080fd5b81019080803573ffffffffffffffffffffffffffffffffffffffff169060200190929190803573ffffffffffffffffffffffffffffffffffffffff169060200190929190803590602001909291905050506106da565b005b6102ad6004803603604081101561027757600080fd5b81019080803573ffffffffffffffffffffffffffffffffffffffff16906020019092919080359060200190929190505050610749565b6040518082815260200191505060405180910390f35b6102ef600480360360208110156102d957600080fd5b81019080803590602001909291905050506107a4565b6040518082815260200191505060405180910390f35b6103316004803603602081101561031b57600080fd5b81019080803590602001909291905050506107c7565b604051808273ffffffffffffffffffffffffffffffffffffffff16815260200191505060405180910390f35b6103656107fe565b604051808273ffffffffffffffffffffffffffffffffffffffff16815260200191505060405180910390f35b610399610824565b6040518080602001828103825283818151815260200191508051906020019080838360005b838110156103d95780820151818401526020810190506103be565b50505050905090810190601f1680156104065780820380516001836020036101000a031916815260200191505b509250505060405180910390f35b6104566004803603602081101561042a57600080fd5b81019080803573ffffffffffffffffffffffffffffffffffffffff1690602001909291905050506108c6565b6040518082815260200191505060405180910390f35b61047461099b565b6040518080602001828103825283818151815260200191508051906020019080838360005b838110156104b4578082015181840152602081019050610499565b50505050905090810190601f1680156104e15780820380516001836020036101000a031916815260200191505b509250505060405180910390f35b6104f7610a3d565b005b6105256004803603602081101561050f57600080fd5b8101908080359060200190929190505050610c3c565b6040518080602001828103825283818151815260200191508051906020019080838360005b8381101561056557808201518184015260208101905061054a565b50505050905090810190601f1680156105925780820380516001836020036101000a031916815260200191505b509250505060405180910390f35b6105a8610f25565b60405180821515815260200191505060405180910390f35b6000806000837bffffffffffffffffffffffffffffffffffffffffffffffffffffffff19167bffffffffffffffffffffffffffffffffffffffffffffffffffffffff1916815260200190815260200160002060009054906101000a900460ff169050919050565b606060048054600181600116156101000203166002900480601f0160208091040260200160405190810160405280929190818152602001828054600181600116156101000203166002900480156106bf5780601f10610694576101008083540402835291602001916106bf565b820191906000526020600020905b8154815290600101906020018083116106a257829003601f168201915b5050505050905090565b60006106d56002610f38565b905090565b6106e43382610f4d565b610739576040517f08c379a0000000000000000000000000000000000000000000000000000000008152600401808060200182810382526027815260200180611ef36027913960400191505060405180910390fd5b610744838383611006565b505050565b600061079c82600160008673ffffffffffffffffffffffffffffffffffffffff1673ffffffffffffffffffffffffffffffffffffffff16815260200190815260200160002061123390919063ffffffff16565b905092915050565b6000806107bb83600261124d90919063ffffffff16565b50905080915050919050565b60006107f782604051806060016040528060298152602001611df66029913960026112799092919063ffffffff16565b9050919050565b600860009054906101000a900473ffffffffffffffffffffffffffffffffffffffff1681565b606060078054600181600116156101000203166002900480601f0160208091040260200160405190810160405280929190818152602001828054600181600116156101000203166002900480156108bc5780601f10610891576101008083540402835291602001916108bc565b820191906000526020600020905b81548152906001019060200180831161089f57829003601f168201915b5050505050905090565b60008073ffffffffffffffffffffffffffffffffffffffff168273ffffffffffffffffffffffffffffffffffffffff16141561094d576040517f08c379a000000000000000000000000000000000000000000000000000000000815260040180806020018281038252602a815260200180611dcc602a913960400191505060405180910390fd5b610994600160008473ffffffffffffffffffffffffffffffffffffffff1673ffffffffffffffffffffffffffffffffffffffff168152602001908152602001600020611298565b9050919050565b606060058054600181600116156101000203166002900480601f016020809104026020016040519081016040528092919081815260200182805460018160011615610100020316600290048015610a335780601f10610a0857610100808354040283529160200191610a33565b820191906000526020600020905b815481529060010190602001808311610a1657829003601f168201915b5050505050905090565b60001515600860149054906101000a900460ff16151514610ac6576040517f08c379a000000000000000000000000000000000000000000000000000000000815260040180806020018281038252601c8152602001807f417274776f726b20616c726561647920696e697469616c697a65642e0000000081525060200191505060405180910390fd5b6040518060400160405280601e81526020017f5468697320417274776f726b20497320416c77617973204f6e2053616c65000081525060049080519060200190610b11929190611cbc565b506040518060400160405280600681526020017f544149414f53000000000000000000000000000000000000000000000000000081525060059080519060200190610b5d929190611cbc565b5033600860006101000a81548173ffffffffffffffffffffffffffffffffffffffff021916908373ffffffffffffffffffffffffffffffffffffffff160217905550610bcc600860009054906101000a900473ffffffffffffffffffffffffffffffffffffffff16602a6112ad565b610bef602a6040518060600160405280602e8152602001611ec5602e9139611495565b610bff6380ac58cd60e01b61151f565b610c0f635b5e139f60e01b61151f565b610c1f63780e9d6360e01b61151f565b6001600860146101000a81548160ff021916908315150217905550565b6060610c4782611627565b610c9c576040517f08c379a000000000000000000000000000000000000000000000000000000000815260040180806020018281038252602f815260200180611e96602f913960400191505060405180910390fd5b6060600660008481526020019081526020016000208054600181600116156101000203166002900480601f016020809104026020016040519081016040528092919081815260200182805460018160011615610100020316600290048015610d455780601f10610d1a57610100808354040283529160200191610d45565b820191906000526020600020905b815481529060010190602001808311610d2857829003601f168201915b50505050509050600060078054600181600116156101000203166002900490501415610d745780915050610f20565b600081511115610e4d576007816040516020018083805460018160011615610100020316600290048015610ddf5780601f10610dbd576101008083540402835291820191610ddf565b820191906000526020600020905b815481529060010190602001808311610dcb575b505082805190602001908083835b60208310610e105780518252602082019150602081019050602083039250610ded565b6001836020036101000a03801982511681845116808217855250505050505090500192505050604051602081830303815290604052915050610f20565b6007610e5884611644565b6040516020018083805460018160011615610100020316600290048015610eb65780601f10610e94576101008083540402835291820191610eb6565b820191906000526020600020905b815481529060010190602001808311610ea2575b505082805190602001908083835b60208310610ee75780518252602082019150602081019050602083039250610ec4565b6001836020036101000a038019825116818451168082178552505050505050905001925050506040516020818303038152906040529150505b919050565b600860149054906101000a900460ff1681565b6000610f468260000161178b565b9050919050565b6000610f5882611627565b610fad576040517f08c379a000000000000000000000000000000000000000000000000000000000815260040180806020018281038252602c815260200180611da0602c913960400191505060405180910390fd5b600860009054906101000a900473ffffffffffffffffffffffffffffffffffffffff1673ffffffffffffffffffffffffffffffffffffffff168373ffffffffffffffffffffffffffffffffffffffff1614905092915050565b8273ffffffffffffffffffffffffffffffffffffffff16611026826107c7565b73ffffffffffffffffffffffffffffffffffffffff1614611092576040517f08c379a0000000000000000000000000000000000000000000000000000000008152600401808060200182810382526029815260200180611e6d6029913960400191505060405180910390fd5b600073ffffffffffffffffffffffffffffffffffffffff168273ffffffffffffffffffffffffffffffffffffffff161415611118576040517f08c379a0000000000000000000000000000000000000000000000000000000008152600401808060200182810382526024815260200180611d7c6024913960400191505060405180910390fd5b61116981600160008673ffffffffffffffffffffffffffffffffffffffff1673ffffffffffffffffffffffffffffffffffffffff16815260200190815260200160002061179c90919063ffffffff16565b506111bb81600160008573ffffffffffffffffffffffffffffffffffffffff1673ffffffffffffffffffffffffffffffffffffffff1681526020019081526020016000206117b690919063ffffffff16565b506111d2818360026117d09092919063ffffffff16565b50808273ffffffffffffffffffffffffffffffffffffffff168473ffffffffffffffffffffffffffffffffffffffff167fddf252ad1be2c89b69c2b068fc378daa952ba7f163c4a11628f55a4df523b3ef60405160405180910390a4505050565b60006112428360000183611805565b60001c905092915050565b6000806000806112608660000186611888565b915091508160001c8160001c9350935050509250929050565b600061128c846000018460001b84611921565b60001c90509392505050565b60006112a682600001611a17565b9050919050565b600073ffffffffffffffffffffffffffffffffffffffff168273ffffffffffffffffffffffffffffffffffffffff161415611350576040517f08c379a00000000000000000000000000000000000000000000000000000000081526004018080602001828103825260208152602001807f4552433732313a206d696e7420746f20746865207a65726f206164647265737381525060200191505060405180910390fd5b61135981611627565b156113cc576040517f08c379a000000000000000000000000000000000000000000000000000000000815260040180806020018281038252601c8152602001807f4552433732313a20746f6b656e20616c7265616479206d696e7465640000000081525060200191505060405180910390fd5b61141d81600160008573ffffffffffffffffffffffffffffffffffffffff1673ffffffffffffffffffffffffffffffffffffffff1681526020019081526020016000206117b690919063ffffffff16565b50611434818360026117d09092919063ffffffff16565b50808273ffffffffffffffffffffffffffffffffffffffff16600073ffffffffffffffffffffffffffffffffffffffff167fddf252ad1be2c89b69c2b068fc378daa952ba7f163c4a11628f55a4df523b3ef60405160405180910390a45050565b61149e82611627565b6114f3576040517f08c379a000000000000000000000000000000000000000000000000000000000815260040180806020018281038252602c815260200180611e41602c913960400191505060405180910390fd5b8060066000848152602001908152602001600020908051906020019061151a929190611cbc565b505050565b63ffffffff60e01b817bffffffffffffffffffffffffffffffffffffffffffffffffffffffff191614156115bb576040517f08c379a000000000000000000000000000000000000000000000000000000000815260040180806020018281038252601c8152602001807f4552433136353a20696e76616c696420696e746572666163652069640000000081525060200191505060405180910390fd5b6001600080837bffffffffffffffffffffffffffffffffffffffffffffffffffffffff19167bffffffffffffffffffffffffffffffffffffffffffffffffffffffff1916815260200190815260200160002060006101000a81548160ff02191690831515021790555050565b600061163d826002611a2890919063ffffffff16565b9050919050565b6060600082141561168c576040518060400160405280600181526020017f30000000000000000000000000000000000000000000000000000000000000008152509050611786565b600082905060005b600082146116b6578080600101915050600a82816116ae57fe5b049150611694565b60608167ffffffffffffffff811180156116cf57600080fd5b506040519080825280601f01601f1916602001820160405280156117025781602001600182028036833780820191505090505b50905060006001830390508593505b6000841461177e57600a848161172357fe5b0660300160f81b8282806001900393508151811061173d57fe5b60200101907effffffffffffffffffffffffffffffffffffffffffffffffffffffffffffff1916908160001a905350600a848161177657fe5b049350611711565b819450505050505b919050565b600081600001805490509050919050565b60006117ae836000018360001b611a42565b905092915050565b60006117c8836000018360001b611b2a565b905092915050565b60006117fc846000018460001b8473ffffffffffffffffffffffffffffffffffffffff1660001b611b9a565b90509392505050565b600081836000018054905011611866576040517f08c379a0000000000000000000000000000000000000000000000000000000008152600401808060200182810382526022815260200180611d5a6022913960400191505060405180910390fd5b82600001828154811061187557fe5b9060005260206000200154905092915050565b600080828460000180549050116118ea576040517f08c379a0000000000000000000000000000000000000000000000000000000008152600401808060200182810382526022815260200180611e1f6022913960400191505060405180910390fd5b60008460000184815481106118fb57fe5b906000526020600020906002020190508060000154816001015492509250509250929050565b600080846001016000858152602001908152602001600020549050600081141583906119e8576040517f08c379a00000000000000000000000000000000000000000000000000000000081526004018080602001828103825283818151815260200191508051906020019080838360005b838110156119ad578082015181840152602081019050611992565b50505050905090810190601f1680156119da5780820380516001836020036101000a031916815260200191505b509250505060405180910390fd5b508460000160018203815481106119fb57fe5b9060005260206000209060020201600101549150509392505050565b600081600001805490509050919050565b6000611a3a836000018360001b611c76565b905092915050565b60008083600101600084815260200190815260200160002054905060008114611b1e5760006001820390506000600186600001805490500390506000866000018281548110611a8d57fe5b9060005260206000200154905080876000018481548110611aaa57fe5b9060005260206000200181905550600183018760010160008381526020019081526020016000208190555086600001805480611ae257fe5b60019003818190600052602060002001600090559055866001016000878152602001908152602001600020600090556001945050505050611b24565b60009150505b92915050565b6000611b368383611c99565b611b8f578260000182908060018154018082558091505060019003906000526020600020016000909190919091505582600001805490508360010160008481526020019081526020016000208190555060019050611b94565b600090505b92915050565b6000808460010160008581526020019081526020016000205490506000811415611c4157846000016040518060400160405280868152602001858152509080600181540180825580915050600190039060005260206000209060020201600090919091909150600082015181600001556020820151816001015550508460000180549050856001016000868152602001908152602001600020819055506001915050611c6f565b82856000016001830381548110611c5457fe5b90600052602060002090600202016001018190555060009150505b9392505050565b600080836001016000848152602001908152602001600020541415905092915050565b600080836001016000848152602001908152602001600020541415905092915050565b828054600181600116156101000203166002900490600052602060002090601f016020900481019282601f10611cfd57805160ff1916838001178555611d2b565b82800160010185558215611d2b579182015b82811115611d2a578251825591602001919060010190611d0f565b5b509050611d389190611d3c565b5090565b5b80821115611d55576000816000905550600101611d3d565b509056fe456e756d657261626c655365743a20696e646578206f7574206f6620626f756e64734552433732313a207472616e7366657220746f20746865207a65726f20616464726573734552433732313a206f70657261746f7220717565727920666f72206e6f6e6578697374656e7420746f6b656e4552433732313a2062616c616e636520717565727920666f7220746865207a65726f20616464726573734552433732313a206f776e657220717565727920666f72206e6f6e6578697374656e7420746f6b656e456e756d657261626c654d61703a20696e646578206f7574206f6620626f756e64734552433732314d657461646174613a2055524920736574206f66206e6f6e6578697374656e7420746f6b656e4552433732313a207472616e73666572206f6620746f6b656e2074686174206973206e6f74206f776e4552433732314d657461646174613a2055524920717565727920666f72206e6f6e6578697374656e7420746f6b656e68747470733a2f2f74686973617274776f726b6973616c776179736f6e73616c652e636f6d2f6d657461646174614552433732313a207472616e736665722063616c6c6572206973206e6f7420737465776172642ea26469706673582212206ff3a8b6c7155db8b0cc51caa42dea4d0e2bacc36219bc6bd6884275287e35d464736f6c6343000703003360806040526000600f60146101000a81548160ff02191690831515021790555060405162002b8538038062002b85833981810160405260a08110156200004457600080fd5b810190808051906020019092919080519060200190929190805190602001909291908051906020019092919080519060200190929190505050640ba43b7400600b8190555064e8d4a51000600c8190555083600160006101000a81548173ffffffffffffffffffffffffffffffffffffffff021916908373ffffffffffffffffffffffffffffffffffffffff160217905550600160009054906101000a900473ffffffffffffffffffffffffffffffffffffffff1673ffffffffffffffffffffffffffffffffffffffff1663ba0bba406040518163ffffffff1660e01b8152600401600060405180830381600087803b1580156200014157600080fd5b505af115801562000156573d6000803e3d6000fd5b5050505084600560006101000a81548173ffffffffffffffffffffffffffffffffffffffff021916908373ffffffffffffffffffffffffffffffffffffffff16021790555080601060006101000a81548173ffffffffffffffffffffffffffffffffffffffff021916908373ffffffffffffffffffffffffffffffffffffffff16021790555033600d60006101000a81548173ffffffffffffffffffffffffffffffffffffffff021916908373ffffffffffffffffffffffffffffffffffffffff16021790555082600e8190555081600f60006101000a81548173ffffffffffffffffffffffffffffffffffffffff021916908373ffffffffffffffffffffffffffffffffffffffff160217905550620002756200028060201b60201c565b50505050506200072c565b600060045414156200039b576000600160009054906101000a900473ffffffffffffffffffffffffffffffffffffffff1673ffffffffffffffffffffffffffffffffffffffff16636352211e602a6040518263ffffffff1660e01b81526004018082815260200191505060206040518083038186803b1580156200030357600080fd5b505afa15801562000318573d6000803e3d6000fd5b505050506040513d60208110156200032f57600080fd5b8101908080519060200190929190505050905062000356813060006200039d60201b60201c565b8073ffffffffffffffffffffffffffffffffffffffff167f6d6bbefef62d4cb6d0e3a4dd306a71d3632319b1e03659513df86b247dd657fe60405160405180910390a2505b565b62000413620003bf600a546003546200058d60201b6200177f1790919060201c565b600960008673ffffffffffffffffffffffffffffffffffffffff1673ffffffffffffffffffffffffffffffffffffffff16815260200190815260200160002054620005df60201b620017c91790919060201c565b600960008573ffffffffffffffffffffffffffffffffffffffff1673ffffffffffffffffffffffffffffffffffffffff16815260200190815260200160002081905550600160009054906101000a900473ffffffffffffffffffffffffffffffffffffffff1673ffffffffffffffffffffffffffffffffffffffff166323b872dd8484602a6040518463ffffffff1660e01b8152600401808473ffffffffffffffffffffffffffffffffffffffff1681526020018373ffffffffffffffffffffffffffffffffffffffff1681526020018281526020019350505050600060405180830381600087803b1580156200050957600080fd5b505af11580156200051e573d6000803e3d6000fd5b505050508060008190555042600a819055506001600860008473ffffffffffffffffffffffffffffffffffffffff1673ffffffffffffffffffffffffffffffffffffffff16815260200190815260200160002060006101000a81548160ff021916908315150217905550505050565b6000620005d783836040518060400160405280601e81526020017f536166654d6174683a207375627472616374696f6e206f766572666c6f7700008152506200066860201b60201c565b905092915050565b6000808284019050838110156200065e576040517f08c379a000000000000000000000000000000000000000000000000000000000815260040180806020018281038252601b8152602001807f536166654d6174683a206164646974696f6e206f766572666c6f77000000000081525060200191505060405180910390fd5b8091505092915050565b600083831115829062000719576040517f08c379a00000000000000000000000000000000000000000000000000000000081526004018080602001828103825283818151815260200191508051906020019080838360005b83811015620006dd578082015181840152602081019050620006c0565b50505050905090810190601f1680156200070b5780820380516001836020036101000a031916815260200191505b509250505060405180910390fd5b5060008385039050809150509392505050565b612449806200073c6000396000f3fe6080604052600436106101e35760003560e01c80636c7f17fb11610102578063a2b40d1911610095578063d6febde811610064578063d6febde81461078b578063e29eb836146107c3578063e9fad8ee146107ee578063f07af5f714610805576101e3565b8063a2b40d19146106b9578063a97d70b1146106f4578063d0e30db01461071f578063d6f59e6a1461074a576101e3565b80639443c2e3116100d15780639443c2e3146105d35780639a153642146105fe5780639fc7a65b14610629578063a035b1fe1461068e576101e3565b80636c7f17fb146104fc578063879d5aad1461054b5780638bb66d8a14610576578063929417db146105a8576101e3565b806338d792551161017a57806355c3bf101161014957806355c3bf10146104145780635d5a92fb1461043f5780635ded3d4e146104a45780635e67d521146104e5576101e3565b806338d79255146103505780633989e2311461039157806343bc1612146103a85780634bd8aeac146103e9576101e3565b80632fda332e116101b65780632fda332e1461029d578063301bd28e146102a757806332567803146102e857806333289a4614610315576101e3565b80630b44d697146101e85780630ee591ba1461021557806315488b881461022c5780632ef4632014610236575b600080fd5b3480156101f457600080fd5b506101fd610830565b60405180821515815260200191505060405180910390f35b34801561022157600080fd5b5061022a610843565b005b610234610981565b005b34801561024257600080fd5b506102856004803603602081101561025957600080fd5b81019080803573ffffffffffffffffffffffffffffffffffffffff169060200190929190505050610af5565b60405180821515815260200191505060405180910390f35b6102a5610b15565b005b3480156102b357600080fd5b506102bc610c74565b604051808273ffffffffffffffffffffffffffffffffffffffff16815260200191505060405180910390f35b3480156102f457600080fd5b506102fd610c9a565b60405180821515815260200191505060405180910390f35b34801561032157600080fd5b5061034e6004803603602081101561033857600080fd5b8101908080359060200190929190505050610cc3565b005b34801561035c57600080fd5b50610365610e26565b604051808273ffffffffffffffffffffffffffffffffffffffff16815260200191505060405180910390f35b34801561039d57600080fd5b506103a6610e4c565b005b3480156103b457600080fd5b506103bd610f5b565b604051808273ffffffffffffffffffffffffffffffffffffffff16815260200191505060405180910390f35b3480156103f557600080fd5b506103fe610f81565b6040518082815260200191505060405180910390f35b34801561042057600080fd5b50610429610f87565b6040518082815260200191505060405180910390f35b34801561044b57600080fd5b5061048e6004803603602081101561046257600080fd5b81019080803573ffffffffffffffffffffffffffffffffffffffff169060200190929190505050610f8d565b6040518082815260200191505060405180910390f35b3480156104b057600080fd5b506104b9610fa5565b604051808273ffffffffffffffffffffffffffffffffffffffff16815260200191505060405180910390f35b3480156104f157600080fd5b506104fa610fcb565b005b34801561050857600080fd5b506105356004803603602081101561051f57600080fd5b8101908080359060200190929190505050611153565b6040518082815260200191505060405180910390f35b34801561055757600080fd5b506105606111af565b6040518082815260200191505060405180910390f35b34801561058257600080fd5b5061058b6112a8565b604051808381526020018281526020019250505060405180910390f35b3480156105b457600080fd5b506105bd6112bc565b6040518082815260200191505060405180910390f35b3480156105df57600080fd5b506105e861132a565b6040518082815260200191505060405180910390f35b34801561060a57600080fd5b50610613611366565b6040518082815260200191505060405180910390f35b34801561063557600080fd5b506106786004803603602081101561064c57600080fd5b81019080803573ffffffffffffffffffffffffffffffffffffffff16906020019092919050505061136c565b6040518082815260200191505060405180910390f35b34801561069a57600080fd5b506106a3611384565b6040518082815260200191505060405180910390f35b3480156106c557600080fd5b506106f2600480360360208110156106dc57600080fd5b810190808035906020019092919050505061138a565b005b34801561070057600080fd5b50610709611590565b6040518082815260200191505060405180910390f35b34801561072b57600080fd5b506107346115cc565b6040518082815260200191505060405180910390f35b34801561075657600080fd5b5061075f6115d2565b604051808273ffffffffffffffffffffffffffffffffffffffff16815260200191505060405180910390f35b6107c1600480360360408110156107a157600080fd5b8101908080359060200190929190803590602001909291905050506115f8565b005b3480156107cf57600080fd5b506107d861160f565b6040518082815260200191505060405180910390f35b3480156107fa57600080fd5b50610803611615565b005b34801561081157600080fd5b5061081a611779565b6040518082815260200191505060405180910390f35b600f60149054906101000a900460ff1681565b600560009054906101000a900473ffffffffffffffffffffffffffffffffffffffff1673ffffffffffffffffffffffffffffffffffffffff163373ffffffffffffffffffffffffffffffffffffffff1614610906576040517f08c379a000000000000000000000000000000000000000000000000000000000815260040180806020018281038252600a8152602001807f4e6f74206172746973740000000000000000000000000000000000000000000081525060200191505060405180910390fd5b600060065490506000600681905550600560009054906101000a900473ffffffffffffffffffffffffffffffffffffffff1673ffffffffffffffffffffffffffffffffffffffff166108fc829081150290604051600060405180830381858888f1935050505015801561097d573d6000803e3d6000fd5b5050565b610989610e4c565b600160009054906101000a900473ffffffffffffffffffffffffffffffffffffffff1673ffffffffffffffffffffffffffffffffffffffff16636352211e602a6040518263ffffffff1660e01b81526004018082815260200191505060206040518083038186803b1580156109fd57600080fd5b505afa158015610a11573d6000803e3d6000fd5b505050506040513d6020811015610a2757600080fd5b810190808051906020019092919050505073ffffffffffffffffffffffffffffffffffffffff163373ffffffffffffffffffffffffffffffffffffffff1614610ad8576040517f08c379a000000000000000000000000000000000000000000000000000000000815260040180806020018281038252600a8152602001807f4e6f7420706174726f6e0000000000000000000000000000000000000000000081525060200191505060405180910390fd5b610aed346004546117c990919063ffffffff16565b600481905550565b60086020528060005260406000206000915054906101000a900460ff1681565b60001515600f60149054906101000a900460ff16151514610b81576040517f08c379a00000000000000000000000000000000000000000000000000000000081526004018080602001828103825260218152602001806123f36021913960400191505060405180910390fd5b600d60009054906101000a900473ffffffffffffffffffffffffffffffffffffffff1673ffffffffffffffffffffffffffffffffffffffff163373ffffffffffffffffffffffffffffffffffffffff1614610c27576040517f08c379a00000000000000000000000000000000000000000000000000000000081526004018080602001828103825260358152602001806123716035913960400191505060405180910390fd5b610c57600e546000600f60009054906101000a900473ffffffffffffffffffffffffffffffffffffffff16611851565b6001600f60146101000a81548160ff021916908315150217905550565b600160009054906101000a900473ffffffffffffffffffffffffffffffffffffffff1681565b600080610ca56112bc565b90506004548110610cba576001915050610cc0565b60009150505b90565b610ccb610e4c565b600160009054906101000a900473ffffffffffffffffffffffffffffffffffffffff1673ffffffffffffffffffffffffffffffffffffffff16636352211e602a6040518263ffffffff1660e01b81526004018082815260200191505060206040518083038186803b158015610d3f57600080fd5b505afa158015610d53573d6000803e3d6000fd5b505050506040513d6020811015610d6957600080fd5b810190808051906020019092919050505073ffffffffffffffffffffffffffffffffffffffff163373ffffffffffffffffffffffffffffffffffffffff1614610e1a576040517f08c379a000000000000000000000000000000000000000000000000000000000815260040180806020018281038252600a8152602001807f4e6f7420706174726f6e0000000000000000000000000000000000000000000081525060200191505060405180910390fd5b610e2381611be0565b50565b600d60009054906101000a900473ffffffffffffffffffffffffffffffffffffffff1681565b6000805414610f59576000610e5f6112bc565b90506004548110610ec957610eb9610ea882610e9a600454610e8c6003544261177f90919063ffffffff16565b611cc590919063ffffffff16565b611d4b90919063ffffffff16565b6003546117c990919063ffffffff16565b6003819055506004549050610ed1565b426003819055505b610ee68160045461177f90919063ffffffff16565b600481905550610f01816002546117c990919063ffffffff16565b600281905550610f1c816006546117c990919063ffffffff16565b600681905550807f54acb82a9e70d7c289b149758d23167c915428ae854a7aa4abe5bf2f4ef29f3660405160405180910390a2610f57611d95565b505b565b600560009054906101000a900473ffffffffffffffffffffffffffffffffffffffff1681565b60065481565b600a5481565b60076020528060005260406000206000915090505481565b600f60009054906101000a900473ffffffffffffffffffffffffffffffffffffffff1681565b6000600760003373ffffffffffffffffffffffffffffffffffffffff1673ffffffffffffffffffffffffffffffffffffffff1681526020019081526020016000205411611080576040517f08c379a00000000000000000000000000000000000000000000000000000000081526004018080602001828103825260188152602001807f4e6f2070756c6c2066756e647320617661696c61626c652e000000000000000081525060200191505060405180910390fd5b6000600760003373ffffffffffffffffffffffffffffffffffffffff1673ffffffffffffffffffffffffffffffffffffffff1681526020019081526020016000205490506000600760003373ffffffffffffffffffffffffffffffffffffffff1673ffffffffffffffffffffffffffffffffffffffff168152602001908152602001600020819055503373ffffffffffffffffffffffffffffffffffffffff166108fc829081150290604051600060405180830381858888f1935050505015801561114f573d6000803e3d6000fd5b5050565b60006111a86301e1338061119a600c5461118c600b5461117e88600054611cc590919063ffffffff16565b611cc590919063ffffffff16565b611d4b90919063ffffffff16565b611d4b90919063ffffffff16565b9050919050565b6000806111f36301e133806111e5600c546111d7600b54600054611cc590919063ffffffff16565b611d4b90919063ffffffff16565b611d4b90919063ffffffff16565b905060006111ff61132a565b9050600081111561122f576112248261121661132a565b611d4b90919063ffffffff16565b4201925050506112a5565b600082111561129d5760006112426112bc565b9050611293611282826112746004546112666003544261177f90919063ffffffff16565b611cc590919063ffffffff16565b611d4b90919063ffffffff16565b6003546117c990919063ffffffff16565b93505050506112a5565b600354925050505b90565b6000806112b36112bc565b42915091509091565b60006113256301e13380611317600c54611309600b546112fb6112ea6003544261177f90919063ffffffff16565b600054611cc590919063ffffffff16565b611cc590919063ffffffff16565b611d4b90919063ffffffff16565b611d4b90919063ffffffff16565b905090565b6000806113356112bc565b9050600454811061134a576000915050611363565b61135f8160045461177f90919063ffffffff16565b9150505b90565b600e5481565b60096020528060005260406000206000915090505481565b60005481565b611392610e4c565b600160009054906101000a900473ffffffffffffffffffffffffffffffffffffffff1673ffffffffffffffffffffffffffffffffffffffff16636352211e602a6040518263ffffffff1660e01b81526004018082815260200191505060206040518083038186803b15801561140657600080fd5b505afa15801561141a573d6000803e3d6000fd5b505050506040513d602081101561143057600080fd5b810190808051906020019092919050505073ffffffffffffffffffffffffffffffffffffffff163373ffffffffffffffffffffffffffffffffffffffff16146114e1576040517f08c379a000000000000000000000000000000000000000000000000000000000815260040180806020018281038252600a8152602001807f4e6f7420706174726f6e0000000000000000000000000000000000000000000081525060200191505060405180910390fd5b60008111611557576040517f08c379a000000000000000000000000000000000000000000000000000000000815260040180806020018281038252600d8152602001807f5072696365206973207a65726f0000000000000000000000000000000000000081525060200191505060405180910390fd5b806000819055506000547f854d6511a28585103049c7770618450f7c9aeb580c69db2913d63869663f475160405160405180910390a250565b6000600a5460035411156115c4576115bd6115b8600a5460035461177f90919063ffffffff16565b611153565b90506115c9565b600090505b90565b60045481565b601060009054906101000a900473ffffffffffffffffffffffffffffffffffffffff1681565b611600610e4c565b61160b828233611851565b5050565b60025481565b61161d610e4c565b600160009054906101000a900473ffffffffffffffffffffffffffffffffffffffff1673ffffffffffffffffffffffffffffffffffffffff16636352211e602a6040518263ffffffff1660e01b81526004018082815260200191505060206040518083038186803b15801561169157600080fd5b505afa1580156116a5573d6000803e3d6000fd5b505050506040513d60208110156116bb57600080fd5b810190808051906020019092919050505073ffffffffffffffffffffffffffffffffffffffff163373ffffffffffffffffffffffffffffffffffffffff161461176c576040517f08c379a000000000000000000000000000000000000000000000000000000000815260040180806020018281038252600a8152602001807f4e6f7420706174726f6e0000000000000000000000000000000000000000000081525060200191505060405180910390fd5b611777600454611be0565b565b60035481565b60006117c183836040518060400160405280601e81526020017f536166654d6174683a207375627472616374696f6e206f766572666c6f770000815250611ea6565b905092915050565b600080828401905083811015611847576040517f08c379a000000000000000000000000000000000000000000000000000000000815260040180806020018281038252601b8152602001807f536166654d6174683a206164646974696f6e206f766572666c6f77000000000081525060200191505060405180910390fd5b8091505092915050565b81600054146118c8576040517f08c379a00000000000000000000000000000000000000000000000000000000081526004018080602001828103825260178152602001807f43757272656e7420507269636520696e636f727265637400000000000000000081525060200191505060405180910390fd5b6000831161193e576040517f08c379a000000000000000000000000000000000000000000000000000000000815260040180806020018281038252600d8152602001807f5072696365206973207a65726f0000000000000000000000000000000000000081525060200191505060405180910390fd5b60005434116119b5576040517f08c379a000000000000000000000000000000000000000000000000000000000815260040180806020018281038252600a8152602001807f4e6f7420656e6f7567680000000000000000000000000000000000000000000081525060200191505060405180910390fd5b6000600160009054906101000a900473ffffffffffffffffffffffffffffffffffffffff1673ffffffffffffffffffffffffffffffffffffffff16636352211e602a6040518263ffffffff1660e01b81526004018082815260200191505060206040518083038186803b158015611a2b57600080fd5b505afa158015611a3f573d6000803e3d6000fd5b505050506040513d6020811015611a5557600080fd5b810190808051906020019092919050505090506000611a816004546000546117c990919063ffffffff16565b90506000811115611b6857600082905060008173ffffffffffffffffffffffffffffffffffffffff166108fc849081150290604051600060405180830381858888f19350505050905080611b6557611b2183600760008773ffffffffffffffffffffffffffffffffffffffff1673ffffffffffffffffffffffffffffffffffffffff168152602001908152602001600020546117c990919063ffffffff16565b600760008673ffffffffffffffffffffffffffffffffffffffff1673ffffffffffffffffffffffffffffffffffffffff168152602001908152602001600020819055505b50505b42600381905550611b846000543461177f90919063ffffffff16565b600481905550611b95828487611f66565b848373ffffffffffffffffffffffffffffffffffffffff167f4f79409f494e81c38036d80aa8a6507c2cb08d90bfb2fead5519447646b3497e60405160405180910390a35050505050565b806004541015611c58576040517f08c379a00000000000000000000000000000000000000000000000000000000081526004018080602001828103825260148152602001807f5769746864726177696e6720746f6f206d75636800000000000000000000000081525060200191505060405180910390fd5b611c6d8160045461177f90919063ffffffff16565b6004819055503373ffffffffffffffffffffffffffffffffffffffff166108fc829081150290604051600060405180830381858888f19350505050158015611cb9573d6000803e3d6000fd5b50611cc2611d95565b50565b600080831415611cd85760009050611d45565b6000828402905082848281611ce957fe5b0414611d40576040517f08c379a00000000000000000000000000000000000000000000000000000000081526004018080602001828103825260218152602001806123a66021913960400191505060405180910390fd5b809150505b92915050565b6000611d8d83836040518060400160405280601a81526020017f536166654d6174683a206469766973696f6e206279207a65726f0000000000008152506120ca565b905092915050565b60006004541415611ea4576000600160009054906101000a900473ffffffffffffffffffffffffffffffffffffffff1673ffffffffffffffffffffffffffffffffffffffff16636352211e602a6040518263ffffffff1660e01b81526004018082815260200191505060206040518083038186803b158015611e1657600080fd5b505afa158015611e2a573d6000803e3d6000fd5b505050506040513d6020811015611e4057600080fd5b81019080805190602001909291905050509050611e5f81306000611f66565b8073ffffffffffffffffffffffffffffffffffffffff167f6d6bbefef62d4cb6d0e3a4dd306a71d3632319b1e03659513df86b247dd657fe60405160405180910390a2505b565b6000838311158290611f53576040517f08c379a00000000000000000000000000000000000000000000000000000000081526004018080602001828103825283818151815260200191508051906020019080838360005b83811015611f18578082015181840152602081019050611efd565b50505050905090810190601f168015611f455780820380516001836020036101000a031916815260200191505b509250505060405180910390fd5b5060008385039050809150509392505050565b600d60009054906101000a900473ffffffffffffffffffffffffffffffffffffffff1673ffffffffffffffffffffffffffffffffffffffff16601060009054906101000a900473ffffffffffffffffffffffffffffffffffffffff1673ffffffffffffffffffffffffffffffffffffffff16636352211e602a6040518263ffffffff1660e01b81526004018082815260200191505060206040518083038186803b15801561201357600080fd5b505afa158015612027573d6000803e3d6000fd5b505050506040513d602081101561203d57600080fd5b810190808051906020019092919050505073ffffffffffffffffffffffffffffffffffffffff16146120ba576040517f08c379a000000000000000000000000000000000000000000000000000000000815260040180806020018281038252602c8152602001806123c7602c913960400191505060405180910390fd5b6120c5838383612190565b505050565b60008083118290612176576040517f08c379a00000000000000000000000000000000000000000000000000000000081526004018080602001828103825283818151815260200191508051906020019080838360005b8381101561213b578082015181840152602081019050612120565b50505050905090810190601f1680156121685780820380516001836020036101000a031916815260200191505b509250505060405180910390fd5b50600083858161218257fe5b049050809150509392505050565b6121f86121aa600a5460035461177f90919063ffffffff16565b600960008673ffffffffffffffffffffffffffffffffffffffff1673ffffffffffffffffffffffffffffffffffffffff168152602001908152602001600020546117c990919063ffffffff16565b600960008573ffffffffffffffffffffffffffffffffffffffff1673ffffffffffffffffffffffffffffffffffffffff16815260200190815260200160002081905550600160009054906101000a900473ffffffffffffffffffffffffffffffffffffffff1673ffffffffffffffffffffffffffffffffffffffff166323b872dd8484602a6040518463ffffffff1660e01b8152600401808473ffffffffffffffffffffffffffffffffffffffff1681526020018373ffffffffffffffffffffffffffffffffffffffff1681526020018281526020019350505050600060405180830381600087803b1580156122ed57600080fd5b505af1158015612301573d6000803e3d6000fd5b505050508060008190555042600a819055506001600860008473ffffffffffffffffffffffffffffffffffffffff1673ffffffffffffffffffffffffffffffffffffffff16815260200190815260200160002060006101000a81548160ff02191690831515021790555050505056fe524553544f52453a2043616e206f6e6c7920626520726573746f72656420627920726573746f726174696f6e20636f6e7472616374536166654d6174683a206d756c7469706c69636174696f6e206f766572666c6f77524553544f52453a204f6c64205631206973206e6f74206f776e65642062792074686520526573746f726572524553544f52453a20417274776f726b20616c726561647920726573746f726564a2646970667358221220b6d04d49708c7b6129229b70c63994513f2c4ca1466acdc02c563e0f1aff9b4564736f6c63430007030033",
  "linkReferences": {},
  "deployedLinkReferences": {}
}