{
  "contractName": "ArtSteward",
  "abi": [
    {
      "constant": true,
      "inputs": [
        {
          "name": "",
          "type": "address"
        }
      ],
      "name": "patrons",
      "outputs": [
        {
          "name": "",
          "type": "bool"
        }
      ],
      "payable": false,
      "stateMutability": "view",
      "type": "function",
      "signature": "0x2ef46320"
    },
    {
      "constant": true,
      "inputs": [],
      "name": "art",
      "outputs": [
        {
          "name": "",
          "type": "address"
        }
      ],
      "payable": false,
      "stateMutability": "view",
      "type": "function",
      "signature": "0x301bd28e"
    },
    {
      "constant": true,
      "inputs": [],
      "name": "artist",
      "outputs": [
        {
          "name": "",
          "type": "address"
        }
      ],
      "payable": false,
      "stateMutability": "view",
      "type": "function",
      "signature": "0x43bc1612"
    },
    {
      "constant": true,
      "inputs": [],
      "name": "artistFund",
      "outputs": [
        {
          "name": "",
          "type": "uint256"
        }
      ],
      "payable": false,
      "stateMutability": "view",
      "type": "function",
      "signature": "0x4bd8aeac"
    },
    {
      "constant": true,
      "inputs": [],
      "name": "timeAcquired",
      "outputs": [
        {
          "name": "",
          "type": "uint256"
        }
      ],
      "payable": false,
      "stateMutability": "view",
      "type": "function",
      "signature": "0x55c3bf10"
    },
    {
      "constant": true,
      "inputs": [
        {
          "name": "",
          "type": "address"
        }
      ],
      "name": "timeHeld",
      "outputs": [
        {
          "name": "",
          "type": "uint256"
        }
      ],
      "payable": false,
      "stateMutability": "view",
      "type": "function",
      "signature": "0x9fc7a65b"
    },
    {
      "constant": true,
      "inputs": [],
      "name": "price",
      "outputs": [
        {
          "name": "",
          "type": "uint256"
        }
      ],
      "payable": false,
      "stateMutability": "view",
      "type": "function",
      "signature": "0xa035b1fe"
    },
    {
      "constant": true,
      "inputs": [
        {
          "name": "",
          "type": "address"
        }
      ],
      "name": "paid",
      "outputs": [
        {
          "name": "",
          "type": "uint256"
        }
      ],
      "payable": false,
      "stateMutability": "view",
      "type": "function",
      "signature": "0xa340cf79"
    },
    {
      "constant": true,
      "inputs": [],
      "name": "currentCollected",
      "outputs": [
        {
          "name": "",
          "type": "uint256"
        }
      ],
      "payable": false,
      "stateMutability": "view",
      "type": "function",
      "signature": "0xa97d70b1"
    },
    {
      "constant": true,
      "inputs": [],
      "name": "state",
      "outputs": [
        {
          "name": "",
          "type": "uint8"
        }
      ],
      "payable": false,
      "stateMutability": "view",
      "type": "function",
      "signature": "0xc19d93fb"
    },
    {
      "constant": true,
      "inputs": [],
      "name": "deposit",
      "outputs": [
        {
          "name": "",
          "type": "uint256"
        }
      ],
      "payable": false,
      "stateMutability": "view",
      "type": "function",
      "signature": "0xd0e30db0"
    },
    {
      "constant": true,
      "inputs": [],
      "name": "totalCollected",
      "outputs": [
        {
          "name": "",
          "type": "uint256"
        }
      ],
      "payable": false,
      "stateMutability": "view",
      "type": "function",
      "signature": "0xe29eb836"
    },
    {
      "constant": true,
      "inputs": [],
      "name": "timeLastCollected",
      "outputs": [
        {
          "name": "",
          "type": "uint256"
        }
      ],
      "payable": false,
      "stateMutability": "view",
      "type": "function",
      "signature": "0xf07af5f7"
    },
    {
      "inputs": [
        {
          "name": "_artist",
          "type": "address"
        },
        {
          "name": "_artwork",
          "type": "address"
        }
      ],
      "payable": false,
      "stateMutability": "nonpayable",
      "type": "constructor",
      "signature": "constructor"
    },
    {
      "anonymous": false,
      "inputs": [
        {
          "indexed": true,
          "name": "owner",
          "type": "address"
        },
        {
          "indexed": true,
          "name": "price",
          "type": "uint256"
        }
      ],
      "name": "LogBuy",
      "type": "event",
      "signature": "0x4f79409f494e81c38036d80aa8a6507c2cb08d90bfb2fead5519447646b3497e"
    },
    {
      "anonymous": false,
      "inputs": [
        {
          "indexed": true,
          "name": "newPrice",
          "type": "uint256"
        }
      ],
      "name": "LogPriceChange",
      "type": "event",
      "signature": "0x854d6511a28585103049c7770618450f7c9aeb580c69db2913d63869663f4751"
    },
    {
      "anonymous": false,
      "inputs": [
        {
          "indexed": true,
          "name": "prevOwner",
          "type": "address"
        }
      ],
      "name": "LogForeclosure",
      "type": "event",
      "signature": "0x6d6bbefef62d4cb6d0e3a4dd306a71d3632319b1e03659513df86b247dd657fe"
    },
    {
      "anonymous": false,
      "inputs": [
        {
          "indexed": true,
          "name": "collected",
          "type": "uint256"
        }
      ],
      "name": "LogCollection",
      "type": "event",
      "signature": "0x54acb82a9e70d7c289b149758d23167c915428ae854a7aa4abe5bf2f4ef29f36"
    },
    {
      "constant": true,
      "inputs": [],
      "name": "patronageOwed",
      "outputs": [
        {
          "name": "patronageDue",
          "type": "uint256"
        }
      ],
      "payable": false,
      "stateMutability": "view",
      "type": "function",
      "signature": "0x929417db"
    },
    {
      "constant": true,
      "inputs": [],
      "name": "patronageOwedWithTimestamp",
      "outputs": [
        {
          "name": "patronageDue",
          "type": "uint256"
        },
        {
          "name": "timestamp",
          "type": "uint256"
        }
      ],
      "payable": false,
      "stateMutability": "view",
      "type": "function",
      "signature": "0x8bb66d8a"
    },
    {
      "constant": true,
      "inputs": [],
      "name": "foreclosed",
      "outputs": [
        {
          "name": "",
          "type": "bool"
        }
      ],
      "payable": false,
      "stateMutability": "view",
      "type": "function",
      "signature": "0x32567803"
    },
    {
      "constant": true,
      "inputs": [],
      "name": "depositAbleToWithdraw",
      "outputs": [
        {
          "name": "",
          "type": "uint256"
        }
      ],
      "payable": false,
      "stateMutability": "view",
      "type": "function",
      "signature": "0x9443c2e3"
    },
    {
      "constant": true,
      "inputs": [],
      "name": "foreclosureTime",
      "outputs": [
        {
          "name": "",
          "type": "uint256"
        }
      ],
      "payable": false,
      "stateMutability": "view",
      "type": "function",
      "signature": "0x879d5aad"
    },
    {
      "constant": false,
      "inputs": [],
      "name": "_collectPatronage",
      "outputs": [],
      "payable": false,
      "stateMutability": "nonpayable",
      "type": "function",
      "signature": "0x3989e231"
    },
    {
      "constant": false,
      "inputs": [],
      "name": "depositWei",
      "outputs": [],
      "payable": true,
      "stateMutability": "payable",
      "type": "function",
      "signature": "0x15488b88"
    },
    {
      "constant": false,
      "inputs": [
        {
          "name": "_newPrice",
          "type": "uint256"
        }
      ],
      "name": "buy",
      "outputs": [],
      "payable": true,
      "stateMutability": "payable",
      "type": "function",
      "signature": "0xd96a094a"
    },
    {
      "constant": false,
      "inputs": [
        {
          "name": "_newPrice",
          "type": "uint256"
        }
      ],
      "name": "changePrice",
      "outputs": [],
      "payable": false,
      "stateMutability": "nonpayable",
      "type": "function",
      "signature": "0xa2b40d19"
    },
    {
      "constant": false,
      "inputs": [
        {
          "name": "_wei",
          "type": "uint256"
        }
      ],
      "name": "withdrawDeposit",
      "outputs": [
        {
          "name": "",
          "type": "uint256"
        }
      ],
      "payable": false,
      "stateMutability": "nonpayable",
      "type": "function",
      "signature": "0x33289a46"
    },
    {
      "constant": false,
      "inputs": [],
      "name": "withdrawArtistFunds",
      "outputs": [],
      "payable": false,
      "stateMutability": "nonpayable",
      "type": "function",
      "signature": "0x0ee591ba"
    },
    {
      "constant": false,
      "inputs": [],
      "name": "exit",
      "outputs": [],
      "payable": false,
      "stateMutability": "nonpayable",
      "type": "function",
      "signature": "0xe9fad8ee"
    }
  ],
  "bytecode": "0x6080604052640ba43b7400600c5564e8d4a51000600d5534801561002257600080fd5b50604051604080611bee8339810180604052604081101561004257600080fd5b81019080805190602001909291908051906020019092919050505080600160006101000a81548173ffffffffffffffffffffffffffffffffffffffff021916908373ffffffffffffffffffffffffffffffffffffffff160217905550600160009054906101000a900473ffffffffffffffffffffffffffffffffffffffff1673ffffffffffffffffffffffffffffffffffffffff1663ba0bba406040518163ffffffff167c0100000000000000000000000000000000000000000000000000000000028152600401600060405180830381600087803b15801561012457600080fd5b505af1158015610138573d6000803e3d6000fd5b5050505081600660006101000a81548173ffffffffffffffffffffffffffffffffffffffff021916908373ffffffffffffffffffffffffffffffffffffffff1602179055506000600e60006101000a81548160ff0219169083600181111561019c57fe5b02179055505050611a3c806101b26000396000f3fe608060405260043610610149576000357c0100000000000000000000000000000000000000000000000000000000900463ffffffff1680630ee591ba1461014e57806315488b88146101655780632ef463201461016f578063301bd28e146101d8578063325678031461022f57806333289a461461025e5780633989e231146102ad57806343bc1612146102c45780634bd8aeac1461031b57806355c3bf1014610346578063879d5aad146103715780638bb66d8a1461039c578063929417db146103ce5780639443c2e3146103f95780639fc7a65b14610424578063a035b1fe14610489578063a2b40d19146104b4578063a340cf79146104ef578063a97d70b114610554578063c19d93fb1461057f578063d0e30db0146105b8578063d96a094a146105e3578063e29eb83614610611578063e9fad8ee1461063c578063f07af5f714610653575b600080fd5b34801561015a57600080fd5b5061016361067e565b005b61016d6107b8565b005b34801561017b57600080fd5b506101be6004803603602081101561019257600080fd5b81019080803573ffffffffffffffffffffffffffffffffffffffff16906020019092919050505061087b565b604051808215151515815260200191505060405180910390f35b3480156101e457600080fd5b506101ed61089b565b604051808273ffffffffffffffffffffffffffffffffffffffff1673ffffffffffffffffffffffffffffffffffffffff16815260200191505060405180910390f35b34801561023b57600080fd5b506102446108c1565b604051808215151515815260200191505060405180910390f35b34801561026a57600080fd5b506102976004803603602081101561028157600080fd5b81019080803590602001909291905050506108ec565b6040518082815260200191505060405180910390f35b3480156102b957600080fd5b506102c2610a71565b005b3480156102d057600080fd5b506102d9610bc1565b604051808273ffffffffffffffffffffffffffffffffffffffff1673ffffffffffffffffffffffffffffffffffffffff16815260200191505060405180910390f35b34801561032757600080fd5b50610330610be7565b6040518082815260200191505060405180910390f35b34801561035257600080fd5b5061035b610bed565b6040518082815260200191505060405180910390f35b34801561037d57600080fd5b50610386610bf3565b6040518082815260200191505060405180910390f35b3480156103a857600080fd5b506103b1610c5b565b604051808381526020018281526020019250505060405180910390f35b3480156103da57600080fd5b506103e3610c6f565b6040518082815260200191505060405180910390f35b34801561040557600080fd5b5061040e610cdd565b6040518082815260200191505060405180910390f35b34801561043057600080fd5b506104736004803603602081101561044757600080fd5b81019080803573ffffffffffffffffffffffffffffffffffffffff169060200190929190505050610d1b565b6040518082815260200191505060405180910390f35b34801561049557600080fd5b5061049e610d33565b6040518082815260200191505060405180910390f35b3480156104c057600080fd5b506104ed600480360360208110156104d757600080fd5b8101908080359060200190929190505050610d39565b005b3480156104fb57600080fd5b5061053e6004803603602081101561051257600080fd5b81019080803573ffffffffffffffffffffffffffffffffffffffff169060200190929190505050610ffe565b6040518082815260200191505060405180910390f35b34801561056057600080fd5b50610569611016565b6040518082815260200191505060405180910390f35b34801561058b57600080fd5b5061059461101c565b604051808260018111156105a457fe5b60ff16815260200191505060405180910390f35b3480156105c457600080fd5b506105cd61102f565b6040518082815260200191505060405180910390f35b61060f600480360360208110156105f957600080fd5b8101908080359060200190929190505050611035565b005b34801561061d57600080fd5b5061062661136f565b6040518082815260200191505060405180910390f35b34801561064857600080fd5b50610651611375565b005b34801561065f57600080fd5b506106686114f7565b6040518082815260200191505060405180910390f35b600660009054906101000a900473ffffffffffffffffffffffffffffffffffffffff1673ffffffffffffffffffffffffffffffffffffffff163373ffffffffffffffffffffffffffffffffffffffff16141515610743576040517f08c379a000000000000000000000000000000000000000000000000000000000815260040180806020018281038252600a8152602001807f4e6f74206172746973740000000000000000000000000000000000000000000081525060200191505060405180910390fd5b600660009054906101000a900473ffffffffffffffffffffffffffffffffffffffff1673ffffffffffffffffffffffffffffffffffffffff166108fc6007549081150290604051600060405180830381858888f193505050501580156107ad573d6000803e3d6000fd5b506000600781905550565b6107c0610a71565b600060018111156107cd57fe5b600e60009054906101000a900460ff1660018111156107e857fe5b1415151561085e576040517f08c379a000000000000000000000000000000000000000000000000000000000815260040180806020018281038252600a8152602001807f466f7265636c6f7365640000000000000000000000000000000000000000000081525060200191505060405180910390fd5b610873346005546114fd90919063ffffffff16565b600581905550565b60086020528060005260406000206000915054906101000a900460ff1681565b600160009054906101000a900473ffffffffffffffffffffffffffffffffffffffff1681565b6000806108cc610c6f565b9050600554811015156108e35760019150506108e9565b60009150505b90565b6000600160009054906101000a900473ffffffffffffffffffffffffffffffffffffffff1673ffffffffffffffffffffffffffffffffffffffff16636352211e602a6040518263ffffffff167c01000000000000000000000000000000000000000000000000000000000281526004018082815260200191505060206040518083038186803b15801561097e57600080fd5b505afa158015610992573d6000803e3d6000fd5b505050506040513d60208110156109a857600080fd5b810190808051906020019092919050505073ffffffffffffffffffffffffffffffffffffffff163373ffffffffffffffffffffffffffffffffffffffff16141515610a5b576040517f08c379a000000000000000000000000000000000000000000000000000000000815260040180806020018281038252600a8152602001807f4e6f7420706174726f6e0000000000000000000000000000000000000000000081525060200191505060405180910390fd5b610a63610a71565b610a6c8261151e565b919050565b600180811115610a7d57fe5b600e60009054906101000a900460ff166001811115610a9857fe5b1415610bbf576000610aa8610c6f565b905060055481101515610b1c57610b04610af382610ae5600554610ad76004544261161190919063ffffffff16565b61163390919063ffffffff16565b61167190919063ffffffff16565b6004546114fd90919063ffffffff16565b6004819055506005549050610b1761169b565b610b3f565b42600481905550610b38816003546114fd90919063ffffffff16565b6003819055505b610b548160055461161190919063ffffffff16565b600581905550610b6f816002546114fd90919063ffffffff16565b600281905550610b8a816007546114fd90919063ffffffff16565b600781905550807f54acb82a9e70d7c289b149758d23167c915428ae854a7aa4abe5bf2f4ef29f3660405160405180910390a2505b565b600660009054906101000a900473ffffffffffffffffffffffffffffffffffffffff1681565b60075481565b600b5481565b600080610c376301e13380610c29600d54610c1b600c5460005461163390919063ffffffff16565b61167190919063ffffffff16565b61167190919063ffffffff16565b9050610c5381610c45610cdd565b61167190919063ffffffff16565b420191505090565b600080610c66610c6f565b42915091509091565b6000610cd86301e13380610cca600d54610cbc600c54610cae610c9d6004544261161190919063ffffffff16565b60005461163390919063ffffffff16565b61163390919063ffffffff16565b61167190919063ffffffff16565b61167190919063ffffffff16565b905090565b600080610ce8610c6f565b905060055481101515610cff576000915050610d18565b610d148160055461161190919063ffffffff16565b9150505b90565b60096020528060005260406000206000915090505481565b60005481565b600160009054906101000a900473ffffffffffffffffffffffffffffffffffffffff1673ffffffffffffffffffffffffffffffffffffffff16636352211e602a6040518263ffffffff167c01000000000000000000000000000000000000000000000000000000000281526004018082815260200191505060206040518083038186803b158015610dc957600080fd5b505afa158015610ddd573d6000803e3d6000fd5b505050506040513d6020811015610df357600080fd5b810190808051906020019092919050505073ffffffffffffffffffffffffffffffffffffffff163373ffffffffffffffffffffffffffffffffffffffff16141515610ea6576040517f08c379a000000000000000000000000000000000000000000000000000000000815260040180806020018281038252600a8152602001807f4e6f7420706174726f6e0000000000000000000000000000000000000000000081525060200191505060405180910390fd5b610eae610a71565b60006001811115610ebb57fe5b600e60009054906101000a900460ff166001811115610ed657fe5b14151515610f4c576040517f08c379a000000000000000000000000000000000000000000000000000000000815260040180806020018281038252600a8152602001807f466f7265636c6f7365640000000000000000000000000000000000000000000081525060200191505060405180910390fd5b60008114151515610fc5576040517f08c379a000000000000000000000000000000000000000000000000000000000815260040180806020018281038252600f8152602001807f496e636f7272656374205072696365000000000000000000000000000000000081525060200191505060405180910390fd5b806000819055506000547f854d6511a28585103049c7770618450f7c9aeb580c69db2913d63869663f475160405160405180910390a250565b600a6020528060005260406000206000915090505481565b60035481565b600e60009054906101000a900460ff1681565b60055481565b61103d610a71565b6000811115156110b5576040517f08c379a000000000000000000000000000000000000000000000000000000000815260040180806020018281038252600d8152602001807f5072696365206973207a65726f0000000000000000000000000000000000000081525060200191505060405180910390fd5b6000543411151561112e576040517f08c379a000000000000000000000000000000000000000000000000000000000815260040180806020018281038252600a8152602001807f4e6f7420656e6f7567680000000000000000000000000000000000000000000081525060200191505060405180910390fd5b6000600160009054906101000a900473ffffffffffffffffffffffffffffffffffffffff1673ffffffffffffffffffffffffffffffffffffffff16636352211e602a6040518263ffffffff167c01000000000000000000000000000000000000000000000000000000000281526004018082815260200191505060206040518083038186803b1580156111c057600080fd5b505afa1580156111d4573d6000803e3d6000fd5b505050506040513d60208110156111ea57600080fd5b8101908080519060200190929190505050905060018081111561120957fe5b600e60009054906101000a900460ff16600181111561122457fe5b14156112a6576000805490506000600554111561125357611250600554826114fd90919063ffffffff16565b90505b60008290508073ffffffffffffffffffffffffffffffffffffffff166108fc839081150290604051600060405180830381858888f1935050505015801561129e573d6000803e3d6000fd5b505050611301565b600060018111156112b357fe5b600e60009054906101000a900460ff1660018111156112ce57fe5b1415611300576001600e60006101000a81548160ff021916908360018111156112f357fe5b0217905550426004819055505b5b6113166000543461161190919063ffffffff16565b6005819055506113278133846117e8565b813373ffffffffffffffffffffffffffffffffffffffff167f4f79409f494e81c38036d80aa8a6507c2cb08d90bfb2fead5519447646b3497e60405160405180910390a35050565b60025481565b600160009054906101000a900473ffffffffffffffffffffffffffffffffffffffff1673ffffffffffffffffffffffffffffffffffffffff16636352211e602a6040518263ffffffff167c01000000000000000000000000000000000000000000000000000000000281526004018082815260200191505060206040518083038186803b15801561140557600080fd5b505afa158015611419573d6000803e3d6000fd5b505050506040513d602081101561142f57600080fd5b810190808051906020019092919050505073ffffffffffffffffffffffffffffffffffffffff163373ffffffffffffffffffffffffffffffffffffffff161415156114e2576040517f08c379a000000000000000000000000000000000000000000000000000000000815260040180806020018281038252600a8152602001807f4e6f7420706174726f6e0000000000000000000000000000000000000000000081525060200191505060405180910390fd5b6114ea610a71565b6114f560055461151e565b565b60045481565b600080828401905083811015151561151457600080fd5b8091505092915050565b8060055410151515611598576040517f08c379a00000000000000000000000000000000000000000000000000000000081526004018080602001828103825260148152602001807f5769746864726177696e6720746f6f206d75636800000000000000000000000081525060200191505060405180910390fd5b6115ad8160055461161190919063ffffffff16565b6005819055503373ffffffffffffffffffffffffffffffffffffffff166108fc829081150290604051600060405180830381858888f193505050501580156115f9573d6000803e3d6000fd5b506000600554141561160e5761160d61169b565b5b50565b600082821115151561162257600080fd5b600082840390508091505092915050565b600080831415611646576000905061166b565b6000828402905082848281151561165957fe5b0414151561166657600080fd5b809150505b92915050565b6000808211151561168157600080fd5b6000828481151561168e57fe5b0490508091505092915050565b6000600160009054906101000a900473ffffffffffffffffffffffffffffffffffffffff1673ffffffffffffffffffffffffffffffffffffffff16636352211e602a6040518263ffffffff167c01000000000000000000000000000000000000000000000000000000000281526004018082815260200191505060206040518083038186803b15801561172d57600080fd5b505afa158015611741573d6000803e3d6000fd5b505050506040513d602081101561175757600080fd5b81019080805190602001909291905050509050611776813060006117e8565b6000600e60006101000a81548160ff0219169083600181111561179557fe5b021790555060006003819055508073ffffffffffffffffffffffffffffffffffffffff167f6d6bbefef62d4cb6d0e3a4dd306a71d3632319b1e03659513df86b247dd657fe60405160405180910390a250565b611850611802600b5460045461161190919063ffffffff16565b600960008673ffffffffffffffffffffffffffffffffffffffff1673ffffffffffffffffffffffffffffffffffffffff168152602001908152602001600020546114fd90919063ffffffff16565b600960008573ffffffffffffffffffffffffffffffffffffffff1673ffffffffffffffffffffffffffffffffffffffff16815260200190815260200160002081905550600160009054906101000a900473ffffffffffffffffffffffffffffffffffffffff1673ffffffffffffffffffffffffffffffffffffffff166323b872dd8484602a6040518463ffffffff167c0100000000000000000000000000000000000000000000000000000000028152600401808473ffffffffffffffffffffffffffffffffffffffff1673ffffffffffffffffffffffffffffffffffffffff1681526020018373ffffffffffffffffffffffffffffffffffffffff1673ffffffffffffffffffffffffffffffffffffffff1681526020018281526020019350505050600060405180830381600087803b15801561198d57600080fd5b505af11580156119a1573d6000803e3d6000fd5b505050508060008190555042600b819055506001600860008473ffffffffffffffffffffffffffffffffffffffff1673ffffffffffffffffffffffffffffffffffffffff16815260200190815260200160002060006101000a81548160ff02191690831515021790555050505056fea165627a7a723058207b55d9aecf7a814eae924d7e0eda19f87e718f696adaad446a09fb3fc7c977440029",
  "source": "pragma solidity ^0.5.0;\nimport \"./interfaces/IERC721Full.sol\";\nimport \"./utils/SafeMath.sol\";\n\ncontract ArtSteward {\n    \n    /*\n    This smart contract collects patronage from current owner through a Harberger tax model and \n    takes stewardship of the artwork if the patron can't pay anymore.\n    Harberger Tax (COST): \n    - Artwork is always on sale.\n    - You have to have a price set.\n    - Tax (Patronage) is paid to maintain ownership.\n    - Steward maints control over ERC721.\n    */\n    using SafeMath for uint256;\n    \n    uint256 public price; //in wei\n    IERC721Full public art; // ERC721 NFT.\n    \n    uint256 public totalCollected; // all patronage ever collected\n    uint256 public currentCollected; // amount currently collected for patron  \n    uint256 public timeLastCollected; // \n    uint256 public deposit;\n    address payable public artist;\n    uint256 public artistFund;\n    \n    mapping (address => bool) public patrons;\n    mapping (address => uint256) public timeHeld;\n    mapping (address => uint256) public paid;\n    uint256 public timeAcquired;\n    \n    // 5% patronage\n    uint256 patronageNumerator = 50000000000;\n    uint256 patronageDenominator = 1000000000000;\n\n    enum StewardState { Foreclosed, Owned }\n    StewardState public state;\n\n    constructor(address payable _artist, address _artwork) public {\n        art = IERC721Full(_artwork);\n        art.setup();\n        artist = _artist;\n        state = StewardState.Foreclosed;\n    } \n\n    event LogBuy(address indexed owner, uint256 indexed price);\n    event LogPriceChange(uint256 indexed newPrice);\n    event LogForeclosure(address indexed prevOwner);\n    event LogCollection(uint256 indexed collected);\n    \n    modifier onlyPatron() {\n        require(msg.sender == art.ownerOf(42), \"Not patron\");\n        _;\n    }\n\n    modifier collectPatronage() {\n       _collectPatronage(); \n       _;\n    }\n\n    /* public view functions */\n    function patronageOwed() public view returns (uint256 patronageDue) {\n        return price.mul(now.sub(timeLastCollected)).mul(patronageNumerator)\n            .div(patronageDenominator).div(365 days);\n    }\n\n    function patronageOwedWithTimestamp() public view returns (uint256 patronageDue, uint256 timestamp) {\n        return (patronageOwed(), now);\n    }\n\n    function foreclosed() public view returns (bool) {\n        // returns whether it is in foreclosed state or not\n        // depending on whether deposit covers patronage due\n        // useful helper function when price should be zero, but contract doesn't reflect it yet.\n        uint256 collection = patronageOwed();\n        if(collection >= deposit) {\n            return true;\n        } else {\n            return false;\n        }\n    }\n\n    // same function as above, basically\n    function depositAbleToWithdraw() public view returns (uint256) {\n        uint256 collection = patronageOwed();\n        if(collection >= deposit) {\n            return 0;\n        } else {\n            return deposit.sub(collection);\n        }\n    }\n\n    /*\n    now + deposit/patronage per second \n    now + depositAbleToWithdraw/(price*nume/denom/365).\n    */\n    function foreclosureTime() public view returns (uint256) {\n        // patronage per second\n        uint256 pps = price.mul(patronageNumerator).div(patronageDenominator).div(365 days);\n        return now + depositAbleToWithdraw().div(pps);\n    }\n\n    /* actions */\n    function _collectPatronage() public {\n        // determine patronage to pay\n        if (state == StewardState.Owned) {\n            uint256 collection = patronageOwed();\n            \n            // should foreclose and stake stewardship\n            if (collection >= deposit) {\n                // up to when was it actually paid for?\n                timeLastCollected = timeLastCollected.add(((now.sub(timeLastCollected)).mul(deposit).div(collection)));\n                collection = deposit; // take what's left.\n\n                _foreclose();\n            } else  {\n                // just a normal collection\n                timeLastCollected = now;\n                currentCollected = currentCollected.add(collection);\n            }\n            \n            deposit = deposit.sub(collection);\n            totalCollected = totalCollected.add(collection);\n            artistFund = artistFund.add(collection);\n            emit LogCollection(collection);\n        }\n    }\n    \n    // note: anyone can deposit\n    function depositWei() public payable collectPatronage {\n        require(state != StewardState.Foreclosed, \"Foreclosed\");\n        deposit = deposit.add(msg.value);\n    }\n    \n    function buy(uint256 _newPrice) public payable collectPatronage {\n        require(_newPrice > 0, \"Price is zero\");\n        require(msg.value > price, \"Not enough\"); // >, coz need to have at least something for deposit\n        address currentOwner = art.ownerOf(42);\n\n        if (state == StewardState.Owned) {\n            uint256 totalToPayBack = price;\n            if(deposit > 0) {\n                totalToPayBack = totalToPayBack.add(deposit);\n            }  \n    \n            // pay previous owner their price + deposit back.\n            address payable payableCurrentOwner = address(uint160(currentOwner));\n            payableCurrentOwner.transfer(totalToPayBack);\n        } else if(state == StewardState.Foreclosed) {\n            state = StewardState.Owned;\n            timeLastCollected = now;\n        }\n        \n        deposit = msg.value.sub(price);\n        transferArtworkTo(currentOwner, msg.sender, _newPrice);\n        emit LogBuy(msg.sender, _newPrice);\n    }\n\n    function changePrice(uint256 _newPrice) public onlyPatron collectPatronage {\n        require(state != StewardState.Foreclosed, \"Foreclosed\");\n        require(_newPrice != 0, \"Incorrect Price\");\n        \n        price = _newPrice;\n        emit LogPriceChange(price);\n    }\n    \n    function withdrawDeposit(uint256 _wei) public onlyPatron collectPatronage returns (uint256) {\n        _withdrawDeposit(_wei);\n    }\n\n    function withdrawArtistFunds() public {\n        require(msg.sender == artist, \"Not artist\");\n        artist.transfer(artistFund);\n        artistFund = 0;\n    }\n\n    function exit() public onlyPatron collectPatronage {\n        _withdrawDeposit(deposit);\n    }\n\n    /* internal */\n\n    function _withdrawDeposit(uint256 _wei) internal {\n        // note: can withdraw whole deposit, which puts it in immediate to be foreclosed state.\n        require(deposit >= _wei, 'Withdrawing too much');\n\n        deposit = deposit.sub(_wei);\n        msg.sender.transfer(_wei); // msg.sender == patron\n\n        if(deposit == 0) {\n            _foreclose();\n        }\n    }\n\n    function _foreclose() internal {\n        // become steward of artwork (aka foreclose)\n        address currentOwner = art.ownerOf(42);\n        transferArtworkTo(currentOwner, address(this), 0);\n        state = StewardState.Foreclosed;\n        currentCollected = 0;\n\n        emit LogForeclosure(currentOwner);\n    }\n\n    function transferArtworkTo(address _currentOwner, address _newOwner, uint256 _newPrice) internal {\n        // note: it would also tabulate time held in stewardship by smart contract\n        timeHeld[_currentOwner] = timeHeld[_currentOwner].add((timeLastCollected.sub(timeAcquired)));\n        \n        art.transferFrom(_currentOwner, _newOwner, 42);\n\n        price = _newPrice;\n        timeAcquired = now;\n        patrons[_newOwner] = true;\n    }\n}",
  "sourcePath": "/Users/simondlr/code/ethereum/alwayson2/contracts/ArtSteward.sol",
  "compiler": {
    "name": "solc",
    "version": "0.5.0+commit.1d4f565a.Emscripten.clang"
  },
  "schemaVersion": "3.0.2",
  "updatedAt": "2019-03-15T11:50:52.022Z",
  "devdoc": {
    "methods": {}
  },
  "userdoc": {
    "methods": {}
  }
}